:10600000C00A0020016E0000FD6D0000FD6D000063
:1060100051A20000FD6D0000FD6D0000FD6D00004F
:10602000FD6D0000FD6D0000FD6D0000FD6D0000C8
:10603000FD6D000088790300FD6D0000FD6D00001E
:10604000FD6D0000FD6D0000FD6D0000FD6D0000A8
:10605000FD6D0000FD6D0000FD6D0000FD6D000098
:10606000FD6D0000FD6D0000FD6D0000FD6D000088
:10607000A5AF0000FD6D0000FD6D0000FD6D00008E
:10608000FD6D0000FD6D0000FD6D0000FD6D000068
:10609000FD6D00005D730000FD6D0000FD6D0000F2
:1060A000FD6D00005D74000035740000FD6D0000A2
:1060B000FD6D0000C9660300FD6D00006571030001
:1060C0001571030011710300816803006171030001
:1060D00019710300397103001D710300B9710300C8
:1060E0003D4C0300054E0300A1710300FD6D00004F
:1060F000E9A00000FD6D0000FD6D0000FD6D0000D9
:10610000FD6D0000FD6D0000FD6D0000FD6D0000E7
:10611000FD6D0000FD6D0000FD6D0000FD6D0000D7
:10612000FD6D0000FD6D0000FD6D0000FD6D0000C7
:10613000FD6D0000FD6D0000FD6D0000FD6D0000B7
:1061400010B5054C237833B9044B13B1044800E073
:1061500000BF0123237010BDF40F002000000000D9
:106160005CCE030008B5034B1BB10349034800E0B4
:1061700000BF08BD00000000F80F00205CCE030047
:10618000154B002B08BF134B9D46A3F5803A002109
:106190008B460F461348144A121A31F0FCFA0F4B83
:1061A000002B00D098470E4B002B00D098470020C2
:1061B000002104000D000D48002802D00C4800E02A
:1061C00000BF31F081FA2000290000F033F831F0EF
:1061D00067FA00BF00000800C00A002000000000AD
:1061E00000000000F40F0020D44F00200000000049
:1061F000000000007047704738B543780446012B13
:1062000005D0022B0AD000220120114602E0421CD8
:1062100001780020BDE8384000F0D4B9451C017871
:106220002A46002000F0CEF929462078BDE8384003
:1062300000F0CBB908B504F0D2FEFFF7DBFF04F0A5
:10624000DBFEFFF7D8FF04F017F9F8E708B50648BA
:106250000BF0D0FC05480BF0FFFC15F0A3F8BDE8EF
:10626000084019F0F5BA00BFBC7B0300847B030033
:1062700000B54FF48270C3B000F0DEF930B101A870
:1062800024F083F910B901A800F0A2F943B05DF839
:1062900004FB08B5012000F0F1FC202000F0EEFC2A
:1062A000BDE80840402000F0E9BC08B5032180208B
:1062B00002F048FC08214FF4C06002F043FC0821C2
:1062C0004FF4F06002F03EFC08213E2002F03AFC60
:1062D00008212D2002F036FC002008BD194B10B516
:1062E0001B68C3F30743012B10D1174B4FF48022D7
:1062F000596E41F2640049034FF0040458BF42F262
:1063000064011A501148046058BF5A5003F0E0FC71
:1063100000F0DDFC03F06CFC03F0F8FC03F08AFCF9
:1063200003F0B6FC03F0BAFCFFF7BFFF03F070FC0C
:1063300000F0C2FC01F0A6F804F0C8FABDE8104075
:1063400003F0F6BF0080E00F0080004020200140F5
:1063500000F07EB808B504F07FFB03F0D9FC06F02E
:1063600096FFBDE8084003F0D3BE08B503F038FC43
:1063700003F02AFCBDE80840FFF768BF08B500F04D
:1063800055FABDE8084000F0AFB8704700F03EBCD9
:10639000FFF76EBF00F0B8B80120704701207047CA
:1063A00010B50BF0A7FD044600F0A4F9002808BFC3
:1063B000002400F05BFC002808BF0024FFF7ECFF7E
:1063C000002814BF2046002010BD38B504F034FD6D
:1063D00004460BF09DFD042825D002284FF000054F
:1063E00008BF012400F09EF904281ED0022808BF2F
:1063F000012400F031FC042819D0022808BF012430
:1064000001F0BEFE042814D0022808BF0124FFF7C3
:10641000C5FF04280FD0022808BF0124002D18BF93
:106420000024204638BD0125DCE70125E1E70125F0
:10643000E6E70125EBE70024F3E7000018B1034B82
:106440001860002070472520704700BF30100020E2
:1064500010B5054C0549206801F04EFD2068BDE8E7
:106460001040FFF7EBBF00BFF40A0020D00A002065
:10647000014B1868704700BF3010002038B502F09B
:10648000AAFC084C05462046002130F8022B31F0CA
:1064900082F900232846238084F80232BDE8384080
:1064A00002F09FBC3610002038B502F094FC084C76
:1064B00005464FF48062A01C002131F06CF90023E6
:1064C0002846238084F80234BDE8384002F089BCB5
:1064D00064120020002208B511464A2022F033FF42
:1064E000BDE80840FFF7CABF08B5FFF7C7FFFFF7D1
:1064F000DBFF00F0EFF90022014B1A7008BD00BF6E
:106500003410002001207047294938B591F8023233
:1065100023B3284D2B780BBBD1F8020081F802324F
:10652000254A20F47F4323F0070393422ED18A7932
:106530003AB3881DFFF760FE23F0FEFC0446FFF728
:106540009DFF012322682B70130203F4E063C2F362
:10655000072213432146181D00F0A2F9174991F8AC
:10656000023423B3134B1A780ABB81F802240122A8
:1065700031F8020B1A7000F093F9BDE83840FFF7CC
:1065800093BF1146012023F0D3F9D5E70C4A93427B
:1065900009D18B791BB1881D00F0CCF8CCE7012024
:1065A00023F0E4F9C8E7063123F01DFDC4E738BD48
:1065B00036100020341000202000FF00641200205C
:1065C0002000FF0180B223F0B3B923F0BFB900006F
:1065D000F8B50646006820F47F4020F0070000F080
:1065E0000DF928BB3046FFF78DFF08B33368114D16
:1065F0001C0204F4E064C3F307231C4302F0EBFB2A
:10660000074628880434C0F580639C420BD80230CA
:1066100022463146284431F09AF82B881C44012345
:106620002C8085F802343846BDE8F84002F0D9BB2A
:10663000F8BD00BF64120020044B1B88C3F58063C3
:1066400098428CBF00200120704700BF64120020D8
:106650000022014B1A707047341000202DE9F341DD
:106660009046044600B1FEE78DB202F0B4FB1E4F27
:10667000064638882A46C0F500739D4219D8023074
:106680004146384431F063F83B882B449BB2032BDE
:106690003B8018D9D7F8021001240A0202F4E06204
:1066A000C1F307210A4304329A4202D887F8024212
:1066B0000224304602F095FB022C06D10B4800F074
:1066C00045FA70B1FEE70124F3E7012C09D100235C
:1066D000074A00934FF4FA71044800F051FA00B1F0
:1066E000FEE702B0BDE8F081361000203C12002029
:1066F000D5640000084B93F8020250B9074B93F899
:1067000002341BB9064B187880F0010000F001003C
:1067100070470020FAE700BF361000206412002006
:106720003410002008B5FFF7E5FF00280CBF042057
:10673000012008BDF8B542780378012A19D006D3A4
:10674000022A24D00120BDE8F84023F00FB9052B20
:10675000F8D1284A1378082B47D00021D0F80240FE
:106760002548CDB2AB421DD840F823400133137009
:1067700030E0052BE6D11F4C2378C3B30021D0F8BD
:1067800002501D48CAB2934215D82D20DBE7012BD9
:10679000D8D120220021184830F0FDFF0020154BF1
:1067A0001870D0E7013100EB810555F8045CAC426C
:1067B000D7D12E20C7E70E46013100EB810757F8ED
:1067C000047CBD42DED10021013B40F8261023703D
:1067D0009A4201DB0020B6E7541C50F8245040F8E0
:1067E000225040F82410E2B2F2E71C20ABE71B2055
:1067F000A9E700BF881600206816002010B5094BD5
:10680000094C19780023DAB2914201D8002010BD5A
:10681000013304EB830252F8042C9042F3D101209F
:10682000F5E700BF881600206816002038B54FF441
:1068300000720021134830F0AEFF4FF48062002157
:10684000114830F0A8FFFFF713FE10490268104D01
:106850008A42286014D00F4B9A4210D10F230E4A5F
:106860000020137001F02CFE2B680446186802F01B
:106870009DFFB4FBF0F0094B8000186038BDFEE7C7
:106880000D23ECE78A1600209018002000C0054078
:10689000901C002000000640891600208C18002063
:1068A000B0F5806F10B5044600D9FEE702460648F1
:1068B00030F04DFF0548064B22460349006801F0C1
:1068C00021FC00B1FEE710BD90180020901C0020B4
:1068D0009D6A000010B5164C164994F9000002F0AC
:1068E000D1FA94F90030002B0CDB012203F01F01D8
:1068F0005B099B0003F160438A4003F56143C3F8E1
:1069000080211A600C4B0D4A18680D4903685A66BD
:1069100042F248029950DA6C0A4942F42042DA64A1
:10692000094B4FF4007201F03FFA00B1FEE710BDD1
:10693000891600204D690000901C0020FF002400F3
:10694000FFFF01008A160020E16A00002DE9F843EC
:10695000504C23681B689B6C1B0440F1988002F02C
:106960003AFA24684FF40041236806465A6E22F42E
:10697000E0225A665A6E42F480225A6642F2480277
:10698000995002F028FAA36A07469B889BB243B944
:1069900002F027FAFFF79EFF3046BDE8F84302F009
:1069A00020BAE06800F070FC0023A56A84F830305B
:1069B00002F011FAAB889BB2002BE9D04FF014091A
:1069C000B5F8028002F00DFA1FFA88F809FB08F802
:1069D00008F110012944E06800F09EFC2E4B45446C
:1069E000AB61A56AAB889BB2B3B994F83530032B81
:1069F00010D094F83630002B3ED142F21C620421B4
:106A000023795B0103F1804303F57033995002222F
:106A100023685A613846BBE702F0DDF9B5F8048017
:106A20001FFA88F8B8F1000F04D102F0DAF9D8F8AB
:106A30000C30FFDEB5F802806B88E9885A1C92FBA7
:106A4000F1F301FB13239BB26B80AB881FFA88F82C
:106A5000013B9BB2AB8009FB085502F0C2F9D5F8A7
:106A60001480B8F1000FBCD0EA682B690021D31A5A
:106A70002046AA68C047B4E7022BCBD12068016C3E
:106A800011F0020118BF062102F0BBFBC2E7BDE80E
:106A9000F88300BF901C0020097000F0F8B507468D
:106AA0000D4600240C4E384601F08AF8830605D4C2
:106AB0003268A3B29A4204F10104F4D8281C18BF2A
:106AC0000120FFF7C5FDBDE8F8404FF480620021CA
:106AD000024830F060BE00BF8C18002090180020E3
:106AE00008B5081C18BF01201946FFF7B7FDBDE81F
:106AF00008404FF400720021014830F04CBE00BF46
:106B00008A1600200021094A13684BB1834204D140
:106B1000036A49B10B620120704719461B6AF4E70A
:106B20000028F5D0184670471360F4E7941C002045
:106B300091F8243033B90123034A81F824301368D3
:106B400001331360704700BF981C002010B5044645
:106B500090B103F0BBFF2046FFF7D4FF58B194F883
:106B6000240040B102F037F9044A1368013B136076
:106B700002F037F9002010BD2220FCE7981C00200D
:106B80002DE9FF41044690461F469DF828500E46C9
:106B900009B9002D33D12046FFF7D8FF60BB84F838
:106BA000240003A93046A5B104F07CF820BBCDE950
:106BB00000002346134A0399204604F008F8D8B988
:106BC000114AC4E90687136884F8255073B9146024
:106BD00010E004F067F878B9CDE900552346094A7A
:106BE0000399204603F0D0FFE9E713461A6A002A0A
:106BF000FBD11C620023236204B0BDE8F081212098
:106C0000FAE700BF316B0000941C002070B5104DF6
:106C10002B681BB100260F4B1C6804B970BD94F89B
:106C2000243093B102F0D7F82B6884F82460013B3C
:106C30002B6002F0D6F894F8253013B92046FFF700
:106C400061FFD4E9063120469847246AE5E700BF92
:106C5000981C0020941C0020034B1B68002B0CBFC9
:106C600001200420704700BF981C0020024B1868C8
:106C7000B0FA80F040097047981C0020082808B539
:106C80000DD004DC0138012809D90E2013E020289A
:106C90000AD04028F9D100230422194602E0042238
:106CA00000231146184603E0042200231146012068
:106CB00002F068FB002008BD08B501213A2001F070
:106CC000B5FBFFF7E6FABDE8084000F005B8012182
:106CD0003A2001F0ABBB00002DE9F04786B06C46CE
:106CE000424DDFF814810FCD0FC495E80300012554
:106CF00084E8030001213A2001F098FB01212820BB
:106D000001F094FB3A4B6946404602938DF80E50D1
:106D100002F026FE2B4604220021022002F032FB64
:106D20002A4629460023022002F02CFB02212B4692
:106D30000846042202F026FB042203212B460220EF
:106D400002F020FB4FF002132A4C0226C4F8303622
:106D5000A3F58033C4F82C361C23082742F2700AAE
:106D600041F27009C4F834664FF44870C4F81C3618
:106D700004F04EF944F80A70142004F049F944F87C
:106D80000970232004F044F944F80A70B921404600
:106D900002F040FE002330461A46194644F80970B6
:106DA00002F0F0FA002329461A46304602F0EAFAC9
:106DB0002B4631463046002202F0E4FA2B460022F0
:106DC0000321304602F0DEFA404602F01FFD0021AA
:106DD0002820C4F83016C4F82C16C4F83416C4F8A9
:106DE0001C1601F023FB06B0BDE8F087EC7B030026
:106DF00000127A0000C0034000C00540FEE700001A
:106E000008B500F013F8064A064B07498B4201D338
:106E1000FFF7B6F952F8040F43F8040BF6E700BF8A
:106E200060CE0300C00A0020F40F0020044B054A86
:106E30009A60D3F8882042F47002C3F88820704723
:106E400000ED00E000600000014B1868704700BFD3
:106E5000FC0B0020084B1B6F03F00703022B04D030
:106E6000032B05D0012B05D0FEE7044B18687047B3
:106E7000034BFBE70348704700800040FC0B0020F9
:106E8000000C0020002D310108B5FFF7E3FF054B92
:106E90001B6FC3F303330133B0FBF3F0024B1860F5
:106EA00008BD00BF00800040F80B0020004870477C
:106EB00000B4C404014B1868704700BF000C0020E8
:106EC000054B1860054B1B6F03F00703032B01D123
:106ED000FFF7DABF704700BF000C002000800040C1
:106EE0000020704700487047002D31014FF40040EA
:106EF00070474FF47A707047014B1868704700BFB5
:106F0000040C002028231B68B3F5C04F03D2196876
:106F1000064A914203D00023037083607047012228
:106F200002709A689B694260F7E700BF07B0CD5EC8
:106F300000230360704703680B6001607047000026
:106F4000054A06491368184488428CBF4FF0FF3346
:106F500010601846704700BF080C00200080002019
:106F60002DE9F04F9B46584B85B01B780646894665
:106F70001546109F9DF844A0DDF85080002B00F0CE
:106F80009280072A00F291800E9B002B00F08D80EA
:106F90000F9B002B00F08980129BB3F5006F00F36C
:106FA0008480012801D1002F7FD0484B03EB0513CB
:106FB0001B7B002B7BD0464C10220021684630F012
:106FC000EAFB04EB45141022B9F1000F5CD14946ED
:106FD000204630F0E0FBA37843F01003A370E37881
:106FE00043F03003E370BAF1000F03D1DBB243F09A
:106FF0000303E37036496A01129B885A013B63F32D
:107000000E100E9B01EB020C8852CCF808300F9B3F
:107010009DF84C10CCF804309CF80330012E61F33D
:107020008303CDF800B08CF8033042D113230CF168
:10703000100ECCF80C309CE80F008EE80F006FF0BB
:107040000301DCF81C20B9F1010F61F39F02CCF8B9
:107050001C20CCF8147004D10F9BCCF80470CCF831
:107060001830002719492A018B1841F80280159A17
:1070700028465A609F605E732246694602F006FA0F
:10708000384605B0BDE8F08F0021204630F083FB84
:107090001023A3700323E370BAF1000FAAD1DBB26F
:1070A00043F03003A5E70B48EBE70B48E9E70B4853
:1070B000E7E7B8F1000FD4D19CF8023068F304136D
:1070C0008CF80230CDE700BF1C1E00209C1C002065
:1070D0001C1D0020028000F0018000F0078000F0FD
:1070E00038B5104B05461B78BBB1C0B101F073FE3B
:1070F00000230D4901EB0312147B3CB92B600123E3
:107100001460137301F06DFE204638BD0133082B67
:10711000F0D101F066FE0548F7E70548F5E70548B8
:10712000F3E700BF1C1E00209C1C0020048000F020
:10713000028000F0018000F0154B13B518680023A1
:1071400001908DF8043001F046FE124B1C7824B1FA
:1071500001F047FE104802B010BD01221A7001F084
:1071600040FE0E4B01A81C731C7783F82C4083F85B
:107170003C4083F84C4083F85C4083F86C4083F8D3
:107180007C4008238DF8073002F04EF92046E2E7F4
:10719000047C03001C1E0020038000F09C1C0020C7
:1071A00010B588B00E9C009207940D9C0246069480
:1071B0009DF8304005940B9C04949DF8284003945E
:1071C0000024CDE9013420460B462146FFF7C8FED6
:1071D00008B010BD10B588B00E9C009207940D9CAD
:1071E000024606949DF8304005940B9C04949DF84B
:1071F000284003940024CDE9013420460B460121A8
:10720000FFF7AEFE08B010BD08B50A4B1B785BB1A6
:1072100007280BD8084B03EB00131B7B43B100215D
:1072200002F0F2F8002008BD0448FCE70448FAE741
:107230000448F8E71C1E00209C1C0020028000F07F
:10724000018000F0078000F008B50A4B1B785BB1A5
:1072500007280BD8084B03EB00131B7B43B101211C
:1072600002F0D2F8002008BD0448FCE70448FAE721
:107270000448F8E71C1E00209C1C0020028000F03F
:10728000018000F0078000F008B50A4B1B7853B16D
:1072900007280AD8084B03EB00131B7B3BB102F015
:1072A00045F9002008BD0548FCE70548FAE7054810
:1072B000F8E700BF1C1E00209C1C0020028000F08C
:1072C000018000F0078000F00D4B1B7893B1072878
:1072D00012D889B10B4B03EB00131B7B73B10A4B24
:1072E000DA6A012303FA00F010401ABF00200B7085
:1072F0000870704705487047054870470548704753
:107300001C1E00209C1C002000000440028000F095
:10731000018000F0078000F00B4B10B51B780C4685
:1073200063B107280CD859B1084B03EB00131B7B42
:1073300043B102F00DF92060002010BD0448FCE7C5
:107340000448FAE70448F8E71C1E00209C1C0020B3
:10735000028000F0018000F0078000F02DE9F84382
:10736000174B1F6D5B6D1F4000D5FEE70126002502
:10737000144CDFF85480DFF85490374217D023685C
:10738000C8F800609BB1A16862680131A16028461D
:107390009847637B012B0AD148B909EB4513197B48
:1073A0001A7F60F3410160F3410219731A770135C6
:1073B000082D4FEA460604F11004DED1BDE8F8833B
:1073C000000004409C1C0020502004401C1D002094
:1073D00070B504460125084E04B970BD94FAA4F0B6
:1073E000B0FA80F005FA00F324EA030456F82030DE
:1073F000002BF1D09847EFE7201E00204FF00072DD
:10740000044BC3F880211A604FF08062C3F88021DA
:107410001A60704700E100E038B504460D4601F0FF
:10742000DAFC034B43F82450BDE8384001F0D9BCE6
:10743000201E0020084BD3F82404D3F82024104049
:1074400042F2204220F42A5020F02A004004400C4E
:107450009850FFF7BDBF00BF00C00340084BD3F8F2
:107460002404D3F82024104042F2204220F4AA4001
:1074700020F055000004000C9850FFF7A9BF00BF92
:1074800000C00340024B1968024B186809F05EBE49
:10749000100C00200C0C00207047000070B5940008
:1074A000224605460E4630F057FA431C02D018B16A
:1074B000064800E0064870BD22463146284630F0B6
:1074C00037F90028034808BF0020F4E724E000F063
:1074D00021E000F010E000F013B5044601A802F02E
:1074E000F1F89DF80630012223804FF480730020CC
:1074F0006380054B9B680A3303F01F0302FA03F312
:10750000636002B010BD00BF0080E00F02F052B80F
:1075100008B502F03BF8002008BD10B5044644EA67
:10752000010313F00303084609D1934201D100205F
:1075300010BD54F8231040F823100133F5E79200F2
:10754000214630F004F9F2E710B5044630F014FAA1
:10755000431C02D018B10C4800E00C4810BD0C4B85
:1075600020469B680A3303F01F020123934023F057
:1075700003032344984201D10020EFE750F8042B85
:107580000132F7D00348E9E724E000F021E000F001
:107590000080E00F0EE000F008B501F015FC014B93
:1075A000186008BDF8340020014B186801F010BCC9
:1075B000F83400200A460139014402F0F9BD000008
:1075C00038B141B1013AB2F5006F044838BF00202C
:1075D0007047034870470148704700BF037000F0D0
:1075E000027000F038B504460D4601F0F4FBA288A5
:1075F00092B222B92A6001F0F4FB064838BD142289
:10760000638802FB034308332B6001F0EAFB002090
:10761000F4E700BF0B7000F038B504460D4601F0EA
:10762000DAFBA3889BB223B92B6001F0DAFB0C488C
:1076300038BD14226388E18802FB034308332B60C2
:1076400063885A1C92FBF1F301FB13239BB2638006
:10765000A388013B9BB2A38001F0C3FB0020E7E7B6
:107660000B7000F02DE9F04104461746884601F002
:10767000B2FBA388E28805469A4206D800233B6005
:1076800001F0AFFB1148BDE8F08114262088324696
:1076900006FB00404146083030F059F82288238824
:1076A00006FB0242E18808323A605A1C92FBF1F371
:1076B00001FB13239BB22380A388284601339BB28E
:1076C000A38001F08EFB0020DDE700BF0A7000F010
:1076D000034693F8363010B5022B00680AD101F04A
:1076E0009FFD044603F0D8FA24235843B0FBF4F07E
:1076F000013010BD02F05AF8F3E7000090F8353081
:10770000022B0BD13022437F90F821005A43044BC7
:107710009B5823FA00F000F00100704700207047EA
:1077200014C00340002313B51C4A52F8234094F8B8
:10773000211081420ED00133042BF6D102B010BDCE
:107740000028FBD19DF80730002BF7D0A068FFF789
:107750005BFDF3E794F83530022BEFD12046FFF7BD
:10776000CDFF637E2076022BE8D194F8323003F00F
:10777000FF02002BE2D102A901F8012DA068FFF75A
:10778000A3FD237E1BB194F83330002BD8D0002307
:10779000A06884F83330FFF757FDCFE7A02400201E
:1077A0000F49104B0A782AB9C3E90022C3E9022223
:1077B00001220A70002253F82210814208D00132BF
:1077C000042AF8D1002153F821201AB943F82100E6
:1077D0000020704701310429F5D10348704700BFEC
:1077E000B0240020A0240020027000F010B5044650
:1077F000FFF7A2FC002104F10800FFF771FC01462D
:1078000008B1044810BD04F10C00FFF769FC002822
:10781000F8D0F6E70E7000F090F836306BB942F20F
:107820001C62042103795B0103F1804303F570338B
:107830009950022203685A617047022B07D10068F1
:10784000016C11F0020118BF062101F0DABC70478B
:1078500090F8363083B9012203685A619A69D207D9
:10786000FCD541F21C62042103795B0103F18043E2
:1078700003F5703399507047022B07D10068036CF1
:107880009B074CBF0521092101F0BBBC70470000DC
:1078900008B590F8363083B9042203685A619A69B2
:1078A0009207FCD541F21C62102103795B0103F1C0
:1078B000804303F57033995008BD022BFCD100685A
:1078C000036CDB074CBF0521062101F09AFC022264
:1078D000014B1A60F0E700BFC0D4034038B504463E
:1078E00001F079FAA16B05460139A16319B9044A7F
:1078F000012002F04DFD2846BDE8384001F071BA84
:10790000687C030037B591F836200B68022A0CBF5B
:107910001C6C9C690D46C4F34014084634B1FFF753
:10792000DDFF022385F83C3003B030BDFFF7D0FE09
:10793000CDE9004401462B46024A034803F024F9EE
:10794000F2E700BF05790000AC35002038B50446E9
:1079500001F041FAA36B054623B90121054A084607
:1079600002F016FDA36B28460133A363BDE838403F
:1079700001F037BA687C0300012370B580F830301D
:1079800090F8363086B004460E46A3B90568243513
:107990002046FFF7DBFF0D4B049403930023029373
:1079A000736832680193012361690093E0682B4694
:1079B000FFF710FC07E0022B02D105683435E7E73A
:1079C000002380F8303006B070BD00BF017E00009B
:1079D0000123F0B580F8313090F8363089B0044694
:1079E0000E465BBB256801F0F6F90DF11F01074655
:1079F00016483C3503F0ACF840B99DF81F302BB168
:107A0000124803F063F82046FFF768FF3846012765
:107A100001F0E7F9204684F83C70FFF797FF0C4B24
:107A2000049403930023029373682A46CDE90073FC
:107A300021693368A068FFF7B3FB04E0022BD1D0C3
:107A4000002380F8313009B0F0BD00BFAC35002014
:107A5000557A0000F0B585B003A9D06A1446FFF747
:107A6000C1FD06462046FFF733FE002523460146AA
:107A7000CDE90055164A174803F086F8164B9E428A
:107A80001FD0039B1D619D6001F0A5F9039A074675
:107A9000D66826B1D2E9002329462046B04703A97B
:107AA000E06AFFF7B9FDE06A83889BB263B103A97E
:107AB000FFF798FD03992046FFF78AFF384601F04B
:107AC00090F9012005B0F0BD84F83130F6E700BF31
:107AD00005790000AC3500200B7000F073B504464A
:107AE0000D46C07EE67F00293AD0012304223146AC
:107AF00001F048FC0123022294F82010207F01F0BD
:107B000041FC94F83530022B19D10023012294F85E
:107B10002110607F01F036FC00230422A07F94F83E
:107B2000221001F02FFC012394F82120607F0193A3
:107B30000093114601F0CAFB002002B070BD032B78
:107B4000FAD10023012294F82110607F01F01AFC81
:107B50000023042294F82210A07F01F013FCEBE72D
:107B60000B460A46314601F00DFC2B462A4694F896
:107B70002010207F01F006FC94F83530022B13D141
:107B80002B462A4694F82110607F01F0FBFB2B4620
:107B90002A46A07F94F8221001F0F4FB94F82120EB
:107BA000607F01950123C3E7032BC5D12B462A46ED
:107BB00094F82110607F01F0E5FB2B462A46C9E7C7
:107BC00090F8363013B9036898697047022B06BFE6
:107BD0000368186C002070472DE9F04104460E46FA
:107BE0001746FFF7EDFC8046002834D1152001F040
:107BF00009F90546E26A93889BB213B194F83230D2
:107C000063B394F8363073BB23689D6905F00205B1
:107C10001DB92046FFF73CFE0025012384F83430CF
:107C200094F836304BBB3744BE42206820D183697C
:107C30009A06FCD57DB994F8363083BB42F21C62BB
:107C4000102123795B0103F1804303F570339950D0
:107C5000082223685A614046BDE8F081002DCAD051
:107C6000FFF77CFBC6E7022BD3D123681D6CCDE761
:107C700016F8011B01F0D8FED6E7022BEBD13744F2
:107C8000B742206806D142F22003026C33EA0202B6
:107C9000FBD1CFE716F8011B01F0BCFAF0E7022B8D
:107CA000D9D12068036CDB074CBF0921294601F0BC
:107CB000A8FA0222014B1A60CDE700BFC0E40340DE
:107CC00010B5044680B190F832302BB9FFF716FD9D
:107CD00010B9A068FFF798FA002094F83230013309
:107CE000DBB284F8323010BD0048FCE7027000F0CF
:107CF00010B50446A0B190F832309BB190F8323004
:107D0000012B05D1FFF7FAFC10B9A068FFF79CFA28
:107D1000002094F83230013BDBB284F8323010BDE1
:107D20000148FCE70148FAE7027000F0057000F036
:107D300037B590F835500446022D1ED1012190F838
:107D40002220457E837F01FA02F23020154925B9B1
:107D500000FB031342F2100105E0012D07D100FBE7
:107D6000031341F210015A50002003B030BD247EAD
:107D700000FB0313002CF4D1ECE7012DF4D1037EBA
:107D800073B911238DF80730FFF79AFF2A460DF1DA
:107D900007012046FFF720FF2046FFF7A9FFE3E792
:107DA0001323EFE700C00340F0B587B00446164642
:107DB000FFF706FC0546F0B90493104BCDE9011618
:107DC0006A4601A9A06A03960593FFF74BFC054696
:107DD00088B994F8303073B92046FFF739FD00991F
:107DE0002046FFF7C9FD94F83530032B03D02576E4
:107DF0002046FFF79DFF284607B0F0BD017000F058
:107E000073B5906A01A91446FFF7ECFB05462046BE
:107E1000FFF764FD354B9D423BD094F83600019B43
:107E2000002839D12268916C11F4007107D03049D3
:107E30009860196142F248034FF4007109E0906CB8
:107E4000C50540D52B489960186142F248034FF4AC
:107E50008071D15000F0BFFF01990646CD6835B161
:107E60004A688B682046D31A0A680969A84701A99D
:107E7000A06AFFF7D1FBA06A8588ADB23DB301A926
:107E8000FFF7B0FB01992046FFF776FD304600F082
:107E9000A8FF012002B070BD022814D12268516CE5
:107EA00011F4007106D0124919610021996042F263
:107EB0004403C1E7506CC00505D50E4899601861B0
:107EC00042F24403C3E700221A619A60C2E7012329
:107ED00020462376FFF72CFF94F8353084F8305095
:107EE000032BD3D02046FFF797FCCFE70B7000F0B1
:107EF0000D7000F00C7000F02DE9F043044689B0DD
:107F0000774F01AE0D460FCF0FC697E8070086E802
:107F10000700002C00F0E18025B9724E304609B010
:107F2000BDE8F0834022002120462FF034FC0023DE
:107F30002046A363FFF734FC06460028EED12B7DD4
:107F400084F835302B6884F8360023602A7B227150
:107F5000012284F83C20644A934240F0A180282307
:107F6000A384624B23614FF4802300266361D5E92B
:107F70000723A26216805680968084F83060E36200
:107F80001E805E809E806B6884F831600393EB896D
:107F900084F83360ADF814302B8A0121ADF812302B
:107FA000AB7C3A208DF81030EB7C514F8DF81630B9
:107FB00005238DF8113000F039FA0121A08C00F072
:107FC00035FA01A928688DF8046001F04DFC1422EF
:107FD0002B7B2E7A07EB4313C3F81C26A87A697A09
:107FE00046EA0042C3F83426EA7A41EA024CC3F872
:107FF0002CC6E07784F820206B7DE67621776377C6
:10800000AB7D012184F82130EB7D2046A3772B7EC8
:1080100084F82230FFF762FD064600287FF47EAF29
:1080200000F0D9FE95F814908046B9F1030F42D1C3
:1080300041F21C6202212B7B042007EB4317B9504D
:1080400041F25C0229685B018850297EEA7D03F1D8
:10805000804342EA014241F2286103F570335A50ED
:10806000A97D6A7D42EA014241F224615A504FF0F3
:10807000FF3242F248032868C2502B7D032B0CBF0D
:108080000521042101F0B3FB4FF440622B68204628
:108090005A61FFF7ABFB0646404600F0A2FE3DE703
:1080A000144A93427FF439AF2923A384124B2361EE
:1080B0004FF4A02359E7B9F1020FD8D194F8210069
:1080C0000E49FFF7A9F9FFF799F9A676267684F805
:1080D00019902046FFF72CFEC9E7094E1EE700BFA6
:1080E0004C7C0300037000F000C005400200040057
:1080F00000C0034000000640020005002577000094
:10810000027000F0F0B587B004461646FFF758FA43
:10811000054658BB0493194BCDE90116059394F815
:10812000363003962BBB23689B6903F0020313B917
:108130002046FFF7ADFB6A4601A9E06AFFF792FA15
:10814000054698B994F8313083B900F044FEE36AEB
:1081500006469B889BB233B100992046FFF738FC56
:10816000012384F83430304600F03BFE284607B047
:10817000F0BD022BDCD123681B6CD6E7017000F048
:108180000B4B30B51B788BB1012000230546094C01
:1081900054F8232032B192F83C10022904BF08465B
:1081A00082F83C500133042BF2D130BD0120FCE7B2
:1081B000B0240020A0240020054A1368DB06FCD46C
:1081C0004FF04023D3F88400C0F38110704700BF04
:1081D0008440004038B5104B0546D3F820310C469A
:1081E00003F00303022B0BD0032B0DD0012B0FD177
:1081F000FEF72AFE052305B1286004B1237038BDBF
:10820000FEF758FE0323F6E7FEF76CFE0223F2E7C3
:1082100000231846EFE700BF0080004073B50D460D
:1082200000210E4B0191D3F88041064604F003046F
:10823000012C08D0022C0BD00EB1019B336005B18C
:10824000297002B070BD01A8FFF7C4FF0D21F3E74C
:10825000FEF748FE21460190EEE700BF0080004097
:1082600038B5174B0546D3F824310C4603F0070305
:10827000013B052B20D8DFE803F0030F171B0B137E
:10828000FEF7E2FD052305B1286004B1237038BD77
:10829000FEF7DAFD0623F6E7FEF70CFE0323F2E70E
:1082A000FEF708FE0423EEE7FEF71CFE0223EAE7D2
:1082B000FEF716FE0723E6E700231846E3E700BFB4
:1082C0000080004038B5104B0546D3F840310C46CD
:1082D00003F00303022B0BD0032B0DD0012B0FD186
:1082E000FEF704FE092305B1286004B1237038BDF0
:1082F000FEF702FE0823F6E7FEF7FBFD0A23F2E78E
:1083000000231846EFE700BF0080004038B5134B4C
:108310000546D3F800320C4603F00703013B032B5C
:1083200018D8DFE803F0020A0E12FEF7DFFD09237A
:1083300005B1286004B1237038BDFEF7DDFD0823C8
:10834000F6E7FEF7D6FD0A23F2E7FEF79DFD0C23C4
:10835000800AEDE700231846EAE700BF00800040EE
:1083600038B5104B0546D3F840320C4603F00303F2
:10837000022B0BD0032B0DD0012B0FD1FEF7B6FD36
:10838000092305B1286004B1237038BDFEF7B4FDA0
:108390000823F6E7FEF7ADFD0A23F2E700231846AF
:1083A000EFE700BF0080004038B5104B0546D3F81A
:1083B00060310C4603F00303022B0BD0032B0DD0CE
:1083C000012B0FD1FEF792FD092305B1286004B1FE
:1083D000237038BDFEF790FD0823F6E7FEF789FD10
:1083E0000A23F2E700231846EFE700BF00800040B1
:1083F0000D4B10B4D3F820320A4603F00303012BCF
:108400000AD0022B0CD008B1002303600AB100236C
:1084100013705DF8044B70475DF8044BFFF7DABE4C
:108420005DF8044BFFF74EBF00800040430910B5D4
:1084300007D0012B0FD00A4C0A4A022B14BF234647
:10844000134600F01F0041B103F58053012202FAE8
:1084500000F0186010BD044BF3E703F50053F5E797
:10846000608200406880004064800040B0F5007F7A
:1084700018D005D880B1B0F5C07F0DD000200FE036
:10848000B0F5207F14D0B0F5607FF7D10B4BD3F857
:108490008000C0F3011003E0084B186FC0F30330F5
:1084A00001307047054BD3F89000C0F30460F7E744
:1084B000024B186FC0F38020F2E700BF008000403D
:1084C000002313B53E280446019300F0B18042D842
:1084D0002B2828D01FD8232813D00CD8202849D0E7
:1084E00004D8002846D0019802B010BD212808D039
:1084F00022283FD0F7E7292800F290802828C0F0F2
:108500008380FEF7C1FC02464FF42070FFF7AEFFF8
:10851000B2FBF0F071E0312810D82F28F1D22D28CD
:1085200000F0818056D9FEF7AFFC02464FF4207070
:10853000FFF79CFFB2FBF0F040085EE03C2855D806
:108540003A28DED2382864D03928CCD1002101A8BD
:10855000FFF786FEC7E7B0F5007F50D01BD8522842
:1085600052D00AD84D2805D002D83F28C9D0BAE742
:108570004F28B8D3FEF788FC3FE080283BD004D8D2
:10858000A0F16004012CF5D9ADE7B0F5807F21D0D2
:10859000B0F5C07FADE7B0F5A06F3AD010D8B0F518
:1085A000607F2CD006D8B0F5207FAAD0B0F5407FF0
:1085B000B9D098E7B0F5806F26D0B0F5906FC4E7DA
:1085C000B0F5D06F2FD00AD8B0F5B06F26D0B0F587
:1085D000C06F88D1002101A8FFF774FE83E7B0F5D2
:1085E000E06F25D0B0F5F06F7FF47DAF002101A8DA
:1085F000FFF7DAFE77E7FEF72DFC019073E7FEF751
:1086000029FC0246204681E7002101A8FFF7E2FD90
:1086100069E7002101A8FFF7EBFE64E7002101A84C
:10862000FFF7FCFD5FE7002101A8FFF76FFE5AE7A7
:10863000002101A8FFF794FE55E7000008B580204F
:10864000FFF73EFF044B98429FBF42F270034FF486
:108650008031024AD15008BD005A620200800040B9
:1086600038B5054641F268034FF400300D4AD0504A
:108670000020FFF7FBFE41F671320B4B6843DC69CB
:108680000A4DDA639A68A84204F4803422F4401256
:1086900003D9012918BF42F480129A600CB100225C
:1086A000DA6338BD0080004000000340005A6202D7
:1086B00008B5FEF7FBFBBDE808400021FFF7D0BF7F
:1086C000002307B5B0F5807F8DF8073010D031D882
:1086D0002D287DD012D82A2843D007D82438032843
:1086E00033D99DF8070003B05DF804FB2C28F8D1BE
:1086F0000DF107010020FFF7E5FDF2E73E2840D02D
:1087000009D8382874D03D28EBD10DF1070100209D
:10871000FFF74AFEE5E7522817D08028E1D1374B12
:108720001B6F03F00703013B032BDAD8DFE803F0EC
:108730004844425CB0F5C06FDAD018D8B0F5906FFD
:1087400040D008D8B0F5806FCBD10DF107010020E3
:10875000FFF740FDC5E7B0F5A06F49D0B0F5B06FA9
:10876000BFD10DF107010020FFF758FDB9E7B0F5C3
:10877000F06FCAD00BD8B0F5D06F29D0B0F5E06F4C
:10878000AFD10DF107010020FFF7EAFDA9E7B0F531
:10879000006F17D0B0F5086FA3D1184BD3F8003194
:1087A00003F00303022B19D0032B1BD0012B1DD187
:1087B000FEF780FB032300E005238DF8073090E7E8
:1087C0000223FAE70DF107010020FFF749FD88E7D2
:1087D0000DF107010020FFF799FD82E7FEF78CFB02
:1087E0000823EAE7FEF77CFB0723E6E70123E4E73B
:1087F0000DF107010020FFF7FBFD72E7008000404C
:1088000008B5FFF75DFF082804D0092805D04FF60A
:10881000FF7001E0094B188808BD41F264034FF472
:108820000011074A4FF6FF70D150064B5B6A13F0F8
:10883000010F18BF4FF4FA70EEE700BF300C0020B4
:10884000008000400040024070B504468020FFF7E1
:1088500037FF032800F0868041F264034FF40021C3
:10886000454AD15045F60E0302F58042C2F88030E9
:10887000022141F22803D15042F228030121D150B4
:10888000916D11F48031FBD1637820781B0543EAA8
:108890000063A079657C0343E07843EA00432079D4
:1088A00043EA0033607943EA801313619369E07A05
:1088B00003F000430343E07943EA8063207A43EA0C
:1088C0000063607A43EA0043A07A43EA002393619D
:1088D000637B126A002B18BF0821207B22F00D0257
:1088E00043EA020343EA800341EA0301A27B234BEC
:1088F0004FEA42161962207C35D1996AE27B21F059
:10890000330141F00101314341EA021199621946F4
:108910001B4A9E6D32EA0606FBD1022241F228066E
:108920009A511A658B6D5B00FCD40B69A27823F415
:10893000700343EA02530B614FF0004241F2180307
:10894000CA5018B942F228030222CA5025B942F28D
:1089500028030121094AD150A37C1BB1074B094AC6
:10896000C3F8802070BD9A6A22F033022A43324352
:1089700042EA40029A62EFE70080004000C00040F7
:1089800003000140F1A7FFFFF0B541F264034FF48B
:1089900080071B4E41788478C2780578F7504FF4F1
:1089A000D156184B02275E6241F204064F299F51AF
:1089B00042F204064FF0010728BF4F219F511E6964
:1089C000F603FCD441EA052159611201417942EADA
:1089D00004220A43017942EA41029A60C27981790C
:1089E000120142EA4112417A0A43017A42EA410203
:1089F0005A60827A12B16FF4D1525A62F0BD00BF50
:108A00000080004000000240014B1880704700BF0A
:108A1000300C002010B50446FEF74CFA41F2640316
:108A20004FF40011094AD1500222094B5A609A684A
:108A300012F48032FBD1012C18BF5A624FF00002B1
:108A400008BF5C62024B5A6010BD00BF008000404E
:108A5000004002400029CCBF01210021FFF700BEE9
:108A600010B50446FFF724FE00F054F841F27003FD
:108A70004FF480310C4A013CD150106F20F470400B
:108A800040EA04301067FEF7FFF90446FFF794FB55
:108A9000C0F102012046FFF7DDFF00F041F8BDE81C
:108AA0001040FFF7CBBD00BF00800040B0F5007F55
:108AB0001AD004D850B1B0F5C07F07D07047B0F5D8
:108AC000207F1CD0B0F5607F03D070470846FFF7C9
:108AD000C7BF0F4A0139D2F8803023F0300343EA90
:108AE0000111C2F880107047094A0139D2F890305C
:108AF00023F0F85343EA0161C2F890107047044A2A
:108B00000139136F23F4806343EA812111677047B1
:108B10000080004002214FF42070FFF7C7BF000023
:108B200008B54FF4C070FFF7CBFCBDE8084004491E
:108B300088428CBF022101214FF42070FFF7B6BF9D
:108B400080F0FA02B0F5807F70B50C460DD043D8A6
:108B50002D2800F0058119D82A2861D003D824389F
:108B6000032845D970BD2C28FCD1083CE4B2022C66
:108B70008CBF00218B4B8C4A98BF195DD2F84031D5
:108B800023F003030B43C2F84031EBE73E2861D0EA
:108B900015D8382800F0F5803D28E3D1083CE4B230
:108BA000022C8CBF0021814B7F4A98BF195DD2F8FF
:108BB000603123F003030B43C2F86031D2E752283F
:108BC00016D08028CED18B1E052B00F2B580DFE8B1
:108BD00003F0B09DB36AB3ADB0F5C06FC5D02ED869
:108BE000B0F5906F00F0AB8013D8B0F5806FB9D1BD
:108BF000023CE4B2032C8CBF00216D4B6A4A98BF43
:108C0000195DD2F8203123F003030B43C2F8203161
:108C1000A8E7B0F5A06F00F0B480B0F5B06FA1D1B7
:108C2000022C03D0A4F10D035C425C415E4AD2F8F1
:108C3000803123F003031C43C2F8804192E7B0F572
:108C4000F06FABD017D8B0F5D06F00F08980B0F5D9
:108C5000E06F87D1083CE4B2022C8CBF0021554B59
:108C6000514A98BF195DD2F8403223F003030B43F9
:108C7000C2F8403276E7B0F5006F60D0B0F5086F0B
:108C80007FF470AFCC1EE4B2052C8CBF00214A4BA0
:108C9000454A98BF195DD2F8003123F003030B4316
:108CA000C2F800315EE7002502260121022000F013
:108CB0008BF9FFF7FDFCFFF72DFF4FF4803141F2F8
:108CC0007003394AD150136F23F0070333431367FE
:108CD000FEF7DAF80646FFF76FFAC0F102013046F8
:108CE000FFF7B8FE0121002000F0AAF9FFF718FFF6
:108CF000FFF7A4FC002D7FF435AF032C7FF432AFD7
:108D000042F2280301212D4AD1502BE741F264039E
:108D10004FF40021244A0326D15041F228020121B8
:108D2000264B9D6A9950C5F34005BEE700250426F1
:108D3000BBE700250126B8E700252E46B5E7023C33
:108D4000E4B2052C8CBF00211D4B174A98BF195D5A
:108D5000D2F8243123F007030B43C2F8243101E792
:108D6000083CE4B2042C8CBF0021164B0E4A98BF7D
:108D7000195DD2F8003223F007030B43C2F800322A
:108D8000F0E60D2C0CD00E2C0CBF02210021064A5F
:108D9000D2F8203223F003030B43C2F82032E1E67D
:108DA0000121F4E7747C030000800040747C030020
:108DB000707C0300747C0300827C030000C00040D0
:108DC000777C03007D7C0300EFF3108072B6704760
:108DD00000B962B67047EFF31180302383F3118836
:108DE000704780F311887047054A410900F01F035E
:108DF00052F82100D840C04300F00100704700BF86
:108E000000E100E010B50446EFF31083DB0733D434
:108E1000FFF7EAFF00282ED1002CABBF04F160441D
:108E2000164B04F5614404F00F04ACBF94F8002322
:108E30001A5D1209EFF3118313B1B2EB131F1BD2AA
:108E40000F4C6368C3F30803ABB1103BDBB259B2FC
:108E50000029B5BF03F00F0301F16043043B03F5A4
:108E60006143B6BF1B1993F80003187E00098242C4
:108E700034BF0020012010BD0120FCE714ED00E00C
:108E800000ED00E0024B9B6803EB8000016470473B
:108E900000ED00E0F0B50024059D9DF818709C429F
:108EA00002D10C4B9A60F0BD37B18C420ED250F813
:108EB000246042F8246005E08C4252F8246003D21A
:108EC000002EF4D00134EAE7002EFBD142F8245002
:108ED000F8E700BF00ED00E010B5234B70B9186053
:108EE00041F264014FF40030204A50502049496853
:108EF000012902D1D2F800211A6010BD1B68002B95
:108F0000FBD01B4C6268012AF7D0184A8020C2F8B7
:108F10000031FFF7D5FB052820D14FF4C070FFF7D3
:108F2000A5FA0128044604D102214FF4C070FFF7CE
:108F3000BDFD42F2100207210D4B995041F204028F
:108F4000012199501A69D207FCD5012CD5D12146AF
:108F5000BDE810404FF4C070FFF7A8BD41F2040314
:108F60000122E250C9E700BFB42400200080004085
:108F700000C0014010B5044610B10020FFF7ACFF5F
:108F80000C4A136943F00403136101F0EDFBFFF792
:108F90001BFF2EF0E9FCFFF71BFF01F0F9FB24B1EA
:108FA000BDE810400120FFF797BFBDE81040FDF776
:108FB0006BBF00BF00ED00E0FFF7DCBF0020FFF754
:108FC0008BBF0120FFF788BF38B504461A4A1368E3
:108FD000D806FCD44FF04023D3F88430C3F3811378
:108FE0009C4228D0FDF736FF012C054602D12146D0
:108FF000FFF730FDFFF7E8FE4FF000710F4A4FF02A
:10900000402311604FF48062611E8A401A675A6ED5
:10901000910103D4D3F88420920609D5FFF7D8FE36
:10902000022C08D12846BDE838400021FFF712BDC8
:10903000D3F88420EBE738BD8440004064600040F2
:1090400010B50C4608B9FDF705FF074B21461B7804
:109050003BB1064B984204D80120BDE81040FFF711
:10906000B3BF0220F9E700BFB8240020005A620213
:109070000278034B012100201A70FFF7E1BF00BF07
:10908000B82400204FF04022536F417823F44073FE
:1090900043EA0123536770474FF04022D36E0179B2
:1090A00023F030030B43D3667047000041F26403A2
:1090B0004FF00041174A10B5D150012141F204028E
:1090C0004AF6CD34144B99505A6C1C640A4088B946
:1090D0009868C40705D542F208001950D96AC80734
:1090E000FCD542F204010120585012B10A4B0B4A40
:1090F0001A6410BDD96A0907FCD442F22401202069
:10910000585041F208010120585003494B6A9B0610
:10911000FCD5EAE700800040004009403254FFFFE0
:1091200038B54FF0004141F26403184A184CD15051
:10913000012241F20403E2504AF6CD33656C236408
:1091400043781540934013434FF04022D363A36804
:10915000827823F0740343EA0213C278002A14BF12
:10916000042200221343A3600279837943EA022395
:1091700023614279C379007843EA02236361FFF7F0
:1091800095FF0DB1034B2364012038BD00800040E2
:10919000004009403254FFFFC36C0B42FCD17047C2
:1091A00008B50A23502103630246FFF7F5FF136C4D
:1091B0009907FCD1136C1B0604D442F2040301216D
:1091C000D15008BD536BF5E738B50C4641F20403A6
:1091D0000121C15040F2FF710246FFF7DDFF04F0AC
:1091E0000F0578210563FFF7D7FF04F0010361073E
:1091F00048BF43F00203116C01F003019942FAD118
:1092000038BD21B94368DB0703D5FFF7C9BFFFF7B6
:10921000DBBF7047036C5B06FCD5C1637047000081
:10922000F8B504461F4884420CBF38200020FFF7E1
:1092300047F9A26AA4681C4B04F0E004402C03EA3E
:10924000020310D004D854B3202C08D0002023E00F
:10925000602C22D0802CF9D14FF4807600E0264695
:109260000024012502E080260024032503F58073F5
:109270005D4300232A4619462EF080F802FB04F1D4
:1092800000FB06F706FB0313A2FB06012A4619445E
:1092900000232EF073F83844F8BD4026E0E710268E
:1092A000DFE700BF0000034AF8FF7F0070B5054606
:1092B00014460E46FFF788FD2A68544004EA06016A
:1092C00051402960BDE87040FFF782BD072A2DE9B3
:1092D000F04116461F4601F003084FF003042DD855
:1092E0009500AC4000FA05F221461C48FFF7DEFF6E
:1092F00021461B4808FA05F2FFF7D8FF194A1A4B16
:109300009DF81800002F18BF13460122B2401A60C2
:109310001649174B002818BF0B461A6042F220432B
:1093200014499DF81C00CA50134B01F5A15104319A
:10933000002818BF0B461A60BDE8F081A2F10805AD
:10934000AD00AC4000FA05F221460C48FFF7AEFF35
:1093500008FA05F221460A48CEE700BF00C40340E0
:1093600008C4034010D4034010E4034014D4034065
:1093700014E4034000C0034024E4034004C4034059
:109380000CC40340F0B54AB1012530241D4E8D4078
:1093900004FB00640BB341F21006A5513024444392
:1093A000072904F1804404F5703419D80F27656843
:1093B0008E00B74025EA070502FA06F635436560D8
:1093C00052B9012202FA01F130220E4C02FB004098
:1093D000A3B141F21003C150F0BD42F21006DCE728
:1093E0000F2701F18045083DE668AD00AF4026EA51
:1093F000070602FA05F53543E560E1E742F210039E
:10940000E9E700BF00C00340054B064A00290CBF36
:1094100019461146012303FA00F00860704700BFA7
:10942000401004404020044010B501210446202093
:10943000FEF7FCFF01212120FEF7F8FF0122114B6E
:109440005A60227812069A606178A27842EA014254
:109450009A61FF229A6200229A631A644FF00042D6
:109460004FF0FF315A6542F2500299504FF400110B
:10947000054AC2F88011E3781B01DBB282F815338C
:10948000116010BD0000044000E100E02DE9F04152
:109490000C4601264FF0300EC3B29E40204D23688B
:1094A0008F7A91F80B8094F80DC0097B45F8203035
:1094B000A5F580450EFB00504FEA085343EA0743E9
:1094C00043EA4153C0F860C0C36542F2500322F042
:1094D00003020267EE50FFF77EFC6B6D33436B6552
:1094E000237A13B12B6C33432B64637A13B1AB6BC8
:1094F0003343AB6342F218012379A27942EA034273
:10950000084B5A506179E27942EA014241F218016E
:109510005A50054A16609E64BDE8F041FFF761BCF1
:1095200000400440000004403420044010B50124F1
:10953000C0B28440FFF74FFC044B5A6D22EA04028C
:109540005A659C62BDE81040FFF74BBC0000044028
:10955000F8B50125C3B29D400446FFF73CFC30221C
:10956000094B02FB04341E6D5F6B646EFFF739FC20
:109570003D4206D1C4F30A1008B9354200D101308A
:10958000F8BD0020FCE700BF0000044041F2680382
:109590004FF40031054AD15041F67132044B01219C
:1095A000DA6342F20C029950704700BF008000401D
:1095B0000000034041F67132074B0121DA6342F2A9
:1095C0000C02995000224FF40031DA6342F2680332
:1095D000024AD150704700BF0000034000800040A5
:1095E0004FF090435A6812B19A6A002AFAD1704734
:1095F000CB784A7810B55B010C7843EA82030A798C
:10960000234343EA02130C22424302F190421363C4
:10961000012C02BF8A78024B43F8202010BD00BF06
:10962000E880034008B54FF090435A6802B960B132
:109630005B680BB1FFF7D4FF4FF0904130B10120D0
:10964000074B1860FFF7CCFFC86008BDFFF7C8FFE5
:109650000223CB60FFF7C4FF0122024B1A60F4E73C
:1096600004100048042000484FF090435B6870B538
:109670000BB1FFF7B5FF0121104B06791960837814
:109680004578002BC37814BF02240024002B14BF9C
:10969000042200224379DB0043EA06132B432343D1
:1096A00013434FF090429360054B19600378002BF1
:1096B00014BF0B460223D36070BD00BF04200048D6
:1096C0000410004841F264034FF48031064AD1503F
:1096D000064B5B69C3F38512827003F03F021B0BDC
:1096E00042700370704700BF0080004000C0074018
:1096F00070B5054616461C4621B94FF42070FEF79A
:10970000DFFE0146202C08D001D8ECB170BD402C02
:1097100018D0602CFAD1042200E0082206FB02F3E4
:109720005A0802EB4112B2FBF3F2084B203A03EA6B
:10973000C202AB6823F06003AB60AB681C43AC6053
:10974000EA61E3E70622E9E71022E7E7F8FF7F0096
:10975000F8B5154F14460F401ABB202B07D0402BED
:1097600007D0002B0CBF10254025012603E01D4625
:10977000FBE780250326002307F580777E43194603
:1097800032462DF0FBFD544300FB05F705FB034477
:10979000A2FB05010023214432462DF0EFFD3844A1
:1097A000F8BD80250024E0E7F8FF7F0070B504468F
:1097B00085684FF42070FEF783FEA36805F0010270
:1097C000E16903F06003BDE87040FFF7C1BF38B541
:1097D0000546144621B94FF42070FEF771FE01468C
:1097E00001396400B1FBF4F10902E96138BD0122DD
:1097F00041F20403C250CB43934003F00A03436198
:10980000416111B942F20403C250704741F20403AE
:109810000122C25040F6AA6341F2050243610023CF
:109820008360C365C26042F248020C490361C361B0
:10983000C36481500A4A8365904202D00949884234
:1098400007D19042036502D0064B984201D1002314
:10985000436542F204030122C2507047FFFF01003A
:1098600000C005400000064038B50D460446FFF72D
:10987000CDFF41F204030122C250AB7C1BB18368CF
:1098800043F080438360EB7C5BB1324A2B7D944292
:1098900043D1A2F51032C2F88C31E36D43F080035E
:1098A000E3652A8A6B7B20461343EA891343E3600E
:1098B000D5E901122B7BFFF71BFF6B7D1BB1A36862
:1098C00043F48033A360AB7DEA7D1B07120502F4ED
:1098D000E00203F0E043297E1343A3658B1E012BB6
:1098E0001C4A1D4B23D894421FD002F5804294425B
:1098F0000CBF01224FF0FF3203EB4213022041F272
:109900001C62032998500CBF41F25C0342F25C03D5
:109910000422E2502B78636138BD104A944204BFA0
:10992000A2F52032C2F89C31B7E70022E4E7944266
:109930000DD00A4A94420CBF01224FF0FF3203EBD4
:109940004213022042F21C6201299850DBE70022F8
:10995000F5E700BF00C0054000C00340000006401E
:1099600038B50D460446FFF751FF41F204030122CA
:10997000A97BC2502A8A8368002942F0010214BFE1
:109980004FF48061002113432A7D0B43002A14BF4A
:109990004FF0005200228360836813438360AB7CE6
:1099A0005BB11A4AEB7C904227D1A2F51032C2F883
:1099B0008C31E36D43F08003E3652B7BD5E9011225
:1099C00043F48053E3602046FFF701FF6B7B0BB14C
:1099D000102363616B7D1BB1A36843F48033A360E4
:1099E000AB7DEA7D1B07120503F0E04302F4E002C1
:1099F0001343A3652B78636138BD054A904204BFC9
:109A0000A2F52032C2F89C31D3E700BF00C0054068
:109A10000000064083695A06FCD5C16383699B0632
:109A2000FCD5406AC0B2704783695B06FCD5C16350
:109A30007047000038B50446054D26F098FF0FCC5E
:109A40000FC594E8030085E80300002038BD00BF7F
:109A5000BC24002047F6FF739A42F0B55ED002297D
:109A60005ED8304BCE0013F8311098190129857853
:109A700019460DD1C3785B1B23B1416831F913102E
:109A8000914202DCE818C0B2F0BD013B1BB2F3E723
:109A900040680028F8D0B0F90030934204DBB0F9F8
:109AA00002309342B8BF13468288FF2A19BFC824E8
:109AB0002827B0F90640B0F90870A4EB03040CBFE6
:109AC0000122002294FBF7F414448A19567824B238
:109AD000721EA242A8BF22464FF47A7700EBC20161
:109AE000CC888968013213FB041112B221EAE171BA
:109AF00001F5FA71B242B1FBF7F104DA00EBC204EE
:109B0000A4888C42EAD200EBC20232F8040C8842EC
:109B100028BF0846A84238BF2846B4E7FF20B3E76D
:109B20000020B1E7BC2400200229F0B543D8244B23
:109B300003EBC10413F831306668012B0BD1E178D7
:109B4000A378914294BFC3EB0103C3EB0203DBB2E2
:109B500036F91300F0BD76B3B6F902008242F9DDA2
:109B6000E378B6F90050934227D90021647804368F
:109B7000013CE4B297B2CBB29C424FEAC10306D992
:109B800006EB030CBCF808C00131BC45F3D2F11858
:109B90004FF47A7353434A68B1F902409B1A022288
:109BA00094FBF2F2134493FBF4F39D4205DB9842DD
:109BB000D0DC18B2CEE70348CCE72846CAE700BF9E
:109BC000BC2400200080FFFF08B50448FFF732FFE7
:109BD000BDE80840012026F0CCBE00BF887C030011
:109BE00002494FF0FF3027F02FBA00BF340C00209D
:109BF00007B56B46054A1068516803C36846FFF70E
:109C00008FFA002003B05DF804FB00BF0C7D030059
:109C10004FF0402213B50024536F684643F0010310
:109C2000536700948DF80440FFF736FA204602B0DF
:109C300010BD000070B586B001AA1546114B03F1A6
:109C40001006144618685968083303C4B342224604
:109C5000F7D14FF6FF7219889B782180A3700A4BC9
:109C60000A481B88934208BF7823DBB28DF80D3079
:109C70008DF80E30FDF724F92846FEF7E5FD0020AB
:109C800006B070BD147D03000001E00F00F0490232
:109C900008B50120FEF7BEFE002008BD1FB50B4A27
:109CA00001AB1068516803C31189927A19809A70C8
:109CB000252301A88DF80530FEF766FE6420FEF727
:109CC000A3FE002005B05DF804FB00BF277D030064
:109CD0006FF00402502110B50A480B4C12F0800FAF
:109CE000D3B21BBF03F00F03043BA3181B1802F1F0
:109CF00001020CBF83F800131976402AEED1002030
:109D000010BD00BF00ED00E000E100E000F07AB817
:109D100038B500F0A1FE0446D8B900F0BDFF4FF4FD
:109D2000167358430C4B00F5742000F23F20B0FB33
:109D3000F3F02246094B0A4D18600A4B196845F8A2
:109D4000220001320A2AFAD100EBC0020844104472
:109D50001860204638BD00BF40420F00102500208B
:109D6000E0240020DC24002070470000012208B518
:109D7000034B1A7000F084FF024B186008BD00BF4F
:109D8000D82400200C250020F8B5144C23781BB3F0
:109D900000F076FF124B134D1B68134EC01A08BF1C
:109DA0000120124B124F18602B7856F8232046F8EA
:109DB0002300111A3A680F48521A0A213A600932F0
:109DC000B2FBF1F20133DBB20260B3FBF1F201FB53
:109DD00012332B7000232370F8BD00BFD82400205D
:109DE0000C25002008250020E0240020D424002099
:109DF000DC24002010250020014B1868704700BFAC
:109E00001025002020230D494FF4002081F82C3329
:109E100041F264030A4AD05042F27400094B0A4AE4
:109E20001A5042F270001A504FF48050C1F8840169
:109E3000486041F274015A50704700BF00E100E0F1
:109E40000080004000C00040010000A0054B064A11
:109E50001B78916DC90700D513B10028F9D170475F
:109E6000012070472825002000C000402DE9F8435C
:109E7000914B1E6F9D6A9C6AF10705F0020504F084
:109E8000010452D542F2700201279F508B4ADFF83D
:109E9000488292F80090B9F1000F00F0F98000219B
:109EA000117098F80020BA4200F2ED8042F22802C8
:109EB00002219F5041F2280299509A6DD203FCD49E
:109EC0007F495A6B096822F470620A435A637D48DD
:109ED0007D4A99690068126821F47F01024321F4E8
:109EE0007F410A439A617948794A19691268006882
:109EF00021F47F6121F00F0102430A431A61754981
:109F00009A69096822F0FF020A439A610222002D31
:109F100040F0B38042F228015A50674B0122002CD6
:109F200000F0AE8041F228015A5016F000517CD06A
:109F300042F270024FF0010C5F4B624F995066493C
:109F40005E4ADFF890E182F800C00A7862440A7045
:109F50005A6B5B4902F47060086098695A4900F4D2
:109F60007F400860996901F47F0139609F69FFB201
:109F7000CEF800701F69DFF858E107F47C67CEF86F
:109F800000701F69DFF844E107F03F07CEF800706A
:109F900042F2280743F807C041F228074FF0020CAD
:109FA00043F807C04FF0004C43F807C09F6DFF0314
:109FB000FCD442F228074FF0004C22F4706242F4C5
:109FC0000072B0F5C84F43F807C05A6302D8B1F524
:109FD000C80F0CD9384A41499369096823F47F03B3
:109FE00023F47F4343EA012343EA01439361324B65
:109FF0003B491A69096822F47F62880822F00F023F
:10A00000024342EA80121A619A6922F0FF020A436F
:10A010009A610222002D42D142F228015A500122B7
:10A02000002C3FD041F228015A50002E23DA42F290
:10A0300070024FF00041204B99502A4A1278D2B159
:10A0400042F228020121995041F22802022199503E
:10A050009A6DD203FCD441F218024FF0004199509E
:10A06000022215BB42F228015A50134B0122FCB1C7
:10A0700041F228015A50BDE8F88341F228014BE72C
:10A0800042F2280150E7FFF76FFE164B1F704CE7B6
:10A09000FFF77AFE00F0BEFA88F8009045E741F23B
:10A0A0002801BBE742F22801BEE741F22801DBE7C5
:10A0B00042F22801DEE700BF00C000402825002052
:10A0C0002C25002024250020202500201C250020F0
:10A0D000182500201425002029250020480C0020E8
:10A0E000440C00202A250020FFF7C0BEBFF34F8F8D
:10A0F000BFF36F8F054A536A23F480335362D2F85B
:10A10000943023F00103C2F89430704700ED00E072
:10A1100070B5FFF7EBFF1E4C1E481F4B844208BF73
:10A120004FF08042196B1CBF20F01F02203A21F033
:10A13000FF0141F0A001B2F1005F196309D3174D8F
:10A14000174E296842F0010299600131DE601A6100
:10A15000296084420CD01148124A016822F01F0283
:10A1600042F003029960DA600F4A01311A6101601E
:10A17000BFF34F8FBFF36F8F05225A600B4A536AAC
:10A1800043F480335362BFF34F8FBFF36F8F70BDC3
:10A19000EC0F00200C0E002090ED00E03025002098
:10A1A000030000200B100020E1FFFF3F00ED00E066
:10A1B00010B51446FFF79AFF1F2C194B1ED91A6BC6
:10A1C000C40622F47F4242F4807218BF20F01F00C0
:10A1D000144C1A6318BF2030CA0618BF21F01F01A3
:10A1E000226820F01F0021F01F019A6040F0030058
:10A1F00041F003010132D86019612260BFF34F8F33
:10A20000BFF36F8F05225A60074A536A43F48033C5
:10A210005362BFF34F8FBFF36F8F002010BD00BF9D
:10A2200090ED00E03025002000ED00E0BFF34F8FFF
:10A230000549064BCA6802F4E0621343CB60BFF3E2
:10A240004F8F00BFFDE700BF00ED00E00400FA05FE
:10A2500008B5FFF7EBFF08BD034B1B78002B14BFBD
:10A2600001200220704700BF5C2500200329F8B5BB
:10A2700098BF124B06460F4694BF5C5C002403282F
:10A2800005D8DFE800F002080B0E44F002040C4B86
:10A290001D684DB9F8BD44F00804F8E744F0200407
:10A2A000F5E744F08004F2E76B681A68144203D0C3
:10A2B0005B683946304698472D68EAE7327D0300EF
:10A2C00058250020F8B5FEF77FFD144C074623788B
:10A2D000134D83B1134E33781BB100F081FA002384
:10A2E0003370002000F09AFA18B10023237000F0B8
:10A2F0009FFA23786BB901212878FFF7B7FF012374
:10A300002B702A78084B38461A70BDE8F840FEF7E3
:10A310005FBD0122054B1A70F3E700BF56250020F0
:10A320004C250020542500204D25002057250020D5
:10A3300070B5FEF749FD114D06462A788AB900F03E
:10A340008BFB044620B13046FEF742FD204670BD2F
:10A3500000F0A2FC0A4B18600A48FCF7E9FD0A4B22
:10A360001C6000F075F900F097FA084B00241860A3
:10A37000012330462B70FEF72BFDE7E75525002023
:10A38000602500205825002064250020502500204D
:10A39000F8B50E460446FEF717FD002E14BF012146
:10A3A000FF21164A0546601E135C154C0B441354DE
:10A3B0002278012A1CD9FFF74FFF8242074617D99E
:10A3C000104E33781BB100F00BFA002333700E4AA5
:10A3D000137843B1002313700C4A0120137000F06E
:10A3E0001DFA00F025FA39462078FFF73FFF277065
:10A3F0002846BDE8F840FEF7EBBC00BF5C25002016
:10A400004C250020542500205625002057250020EB
:10A4100010B50446FEF7D8FC002C14BF0121FF2123
:10A42000034A13780B441370BDE81040FEF7D0BC0C
:10A430005E25002038B541600446FEF7C5FC0546A0
:10A4400021460448FCF777FD2846BDE83840FEF772
:10A45000BFBC00BF58250020054B1B685843054B67
:10A4600000F5742000F23F20B0FBF3F0704700BF0E
:10A470006025002040420F002DE9FF47FEF7A4FCB5
:10A480000446FBF78DFF002800F08B80564FDFF865
:10A490007C813D463B782BB1544A1378013B1370C5
:10A4A00000233B70FFF7D8FEB0B14FF0010902382E
:10A4B000484518D803A9002000F0AEFB824690B9A9
:10A4C0004B4B039A1B689A4271D8484A85F8009012
:10A4D00013780133137006E02B7823B1434A2870B8
:10A4E0001378013B1370FFF7B7FE0128064604D925
:10A4F000404B1B780BB900F035F9DFF8149199F84F
:10A500000000CA46B04207D03B4B1B7813B9314616
:10A51000FFF7ACFE89F80060012E0CD9354E337878
:10A520004BB9364B1B7823B900F054F90122344B58
:10A530001A700123337099F8000000F097F900E0D9
:10A5400000BF2046FEF744FCFEF73EFC04464046B2
:10A5500000F0BCFAFBF739FF064600289AD1254BDC
:10A560001A7872B11870264F234B18703B7813B1CC
:10A5700000F036F93E70002000F050F948B300F0CA
:10A5800057F92B782BB1194A1378013B137000232C
:10A590002B7000219AF80000FFF768FE00238AF86C
:10A5A00000302046FEF714FC04B0BDE8F087154BE0
:10A5B0001E6800F075F903993044884285D2022361
:10A5C000091ACDE900A3104A5346404600F0A6FA06
:10A5D00089E7012000F04AF92046FEF7F9FBFEF773
:10A5E000F3FB0446C7E700BF5F2500205C25002081
:10A5F0005025002056250020572500205E250020EC
:10A600005425002064250020C5A200003425002028
:10A610004C25002038B50A4D2B787BB1094C2378A6
:10A6200063B100F005F9084B01211878FFF71EFE11
:10A6300001232B700023054A2370137038BD00BF1F
:10A640004C250020562500204D25002057250020B0
:10A65000F7B50024022302A800F8084D8DF8053054
:10A660008DF804404FF40025FEF702FD8DF80540FB
:10A6700041F2640401A8FEF705FD344A344B116F22
:10A6800001F007011960D2F82031D2F824011551E8
:10A690004FF40035155102F5A0329269032900F0FC
:10A6A000070002F0020247D003F003039C1E63423E
:10A6B0006341022808BF43F001032649264C0B7072
:10A6C00062B3224A3BB9D2F8003103F00303581EAB
:10A6D000434243410B70D2F8003103F00303022BD5
:10A6E0002CD0032B2DD0012B2ED1FCF7E3FB002720
:10A6F0001A4B0246DB68461EC3F30B0301331848AE
:10A7000003EB8301E0FB01670023304639462CF060
:10A7100035FEFFF7A1FE2368184420602320FFF7D1
:10A720009BFE2368184420606420FFF795FE236891
:10A730001844206003B0F0BD0123BAE7FCF7DCFB4E
:10A74000D5E7FCF7CDFBD2E70020D0E70080004042
:10A75000C43500206A2500206C25002000C001407F
:10A7600040420F00FEF72ABC074B1A7852B1002274
:10A770001A70064A136F23F0070343F001031367AF
:10A78000FCF782BB704700BF6825002000800040B6
:10A790000D4B10B51B78B3B1022000F0F3FB90B164
:10A7A00000F068FA78B1094B9A6DD20302D5DB6DDF
:10A7B0009B0708D40124064B1C70FFF7D7FA41F21F
:10A7C0002803024AD45010BD6A25002000C0004072
:10A7D000692500200122014B1A707047682500206E
:10A7E00038B50B4B1B788BB10A4D2A7862B90A4CED
:10A7F000A36DDA0302D5E36D9B0707D4FFF7B6FA22
:10A8000041F228030122E25000232B7038BD00BF23
:10A810006A2500206925002000C00040034B1B78FA
:10A820000BB1FFF713BB0120704700BF6A25002062
:10A8300008B5FEF7C6FB0A4A0A49136F096823F0F8
:10A8400007030B431367084B1B782BB142F2280315
:10A85000012102F58042D150BDE80840FCF714BB4D
:10A8600000800040C43500206A25002002280AD05C
:10A8700003280BD001280CD1064A136923F00403E6
:10A88000136130BF70470020FEF774BB0020FEF755
:10A8900093BB704700ED00E04FF4C870FFF7DCBDDC
:10A8A00008B5054B187818B1FFF7A6FA00EBD000F1
:10A8B000024B1B68184408BD6A2500206C25002047
:10A8C0000122014B1A7070476A250020094B07B519
:10A8D000986800F16043B3F5004F07D30023CDE93A
:10A8E00000335023044A1946FEF7D4FA03B05DF84A
:10A8F00004FB00BF00ED00E000260020104A30B548
:10A90000136841611546ABB91060836011E0091B03
:10A910009C6841611A467CB123465C698C42F6D939
:10A92000002CF4D052B19060836013B15A69511A6F
:10A93000596130BD0022F0E72346F4E72860F3E7D1
:10A940005827002010B500F0C5FA094B094A1968CC
:10A9500031B11368C41A4B69A34203D31B1B4B616B
:10A96000106003E0C01A002310604B6110BD00BFEF
:10A97000582700204427002038B50F4D02202B68AF
:10A980005C690E4B1B681C4400F0D8FA204600F0AE
:10A99000A9FA00230A492A680B70D088800702D5DB
:10A9A00001230B7038BD9268002AFBD05069034424
:10A9B000012BF2D9F6E700BF5827002044270020DA
:10A9C0004C27002070B59DF81450164605710025DF
:10A9D000049A8560BDF818500446C5800260C0E93D
:10A9E00003360D4629B961610BB11146984796B1FE
:10A9F0003546FEF7F0F90646FFF7A4FF2946204644
:10AA0000FFF77CFF054B1B68A34201D1FFF7B4FFA2
:10AA10003046FEF7E6F9002070BD00BF5827002041
:10AA200000210C4A13687BB183420AD1836879B153
:10AA30008B6083681BB15A6941690A445A610020DE
:10AA4000704719469B68EEE70028EFD00220704758
:10AA50001360EEE75827002070B5FEF7BCF9144EDE
:10AA600005463478FCB9134B1C60134B1C60134B28
:10AA70001C8000F0EDF9012000F060FA00F0ACFA63
:10AA80000F4B0246186020B92846FEF7AAF923208A
:10AA900070BD23460B4840F2E7312CF06FFC0A4BA7
:10AAA0001860012333702846FEF79BF90020EFE77A
:10AAB0004027002058270020442700204E27002050
:10AAC0005427002018FCFFFF482700202DE9F04103
:10AAD0000546F8B1FEF77FF90F4F0646FFF732FF44
:10AAE0002846D7F80080FFF79BFF044628B1304680
:10AAF000FEF777F92046BDE8F081A8453B6803D111
:10AB000023B1FFF739FFF2E7002BF0D1022000F06C
:10AB100021FAECE72224EDE758270020F0B50D4696
:10AB200085B016461F46044680B1FFF7CFFFBDF83B
:10AB30002C30002202939DF828302946CDE900737D
:10AB400020463346FFF73EFF05B0F0BD2220FBE76D
:10AB500038B50C46054698B191B100230B70FEF74D
:10AB60003AF90121074B1B680BB122781AB1FEF7A5
:10AB700038F9002038BD9D420CBF21709B68F3E777
:10AB80002220F7E758270020F0B51F46002387B0A2
:10AB90000D4616468DF817300446A0B10DF1170189
:10ABA000FFF7D6FF9DF817207AB9BDF83430294653
:10ABB00002939DF830302046CDE900733346FFF70D
:10ABC00001FF07B0F0BD2220FBE70320F9E7F0B555
:10ABD0001F46002387B00D4616468DF817300446F1
:10ABE000A8B10DF11701FFF7B3FF9DF8173083B936
:10ABF000BDF834302A4602939DF830302946CDE91D
:10AC0000007320463346FFF7DDFE07B0F0BD22207B
:10AC1000FBE70220F9E70000F8B507460E46FEF70D
:10AC2000DAF800240546114B1B6823B92846FEF7C5
:10AC3000D8F81B2015E05A691444DA88BA4213D1B7
:10AC400000F048F90A4F3B68C01AA0420AD200F04F
:10AC500041F93B68C01A201A30602846FEF7C1F857
:10AC60000020F8BD0020F7E79B68DEE758270020AA
:10AC700044270020014B1878704700BF4C27002064
:10AC800038B5FEF7A8F8054600F024F90446284632
:10AC9000FEF7A7F8204638BD014B1868704700BF83
:10ACA000542700200A4B10B51B680C4683420CD376
:10ACB000084B4FF47A7219680023A0FB01012CF0B5
:10ACC0005DFB01302060002010BD2120FCE700BFAB
:10ACD0004827002054270020104B10B51A684FF465
:10ACE0007A73A0FB0301A2B1531E134211D1B2FA31
:10ACF00082F2C2F11F02C2F12004A2F1200301FA84
:10AD000004F420FA02F2224321FA03F342EA030098
:10AD100010BD00232CF032FBFAE700BF54270020BF
:10AD2000C2072DE9F84F04460BD53F4A138801337B
:10AD30009BB21380FFF706FE3C4B1B680BB1FFF77D
:10AD40001BFEA3076DD500F0C5F8394F00263D68FE
:10AD50008046451BFEF73FF8B24683463246334BEA
:10AD60001C6814B16369AB4214D9012E314B51D127
:10AD7000D288022A4ED11E70002C4ED06369C7F8CB
:10AD800000805D1B6561FFF7F7FD5846BDE8F84F91
:10AD9000FEF727B823462A46C7F800805969914232
:10ADA00009D8187994F804C0521A844588BF1C4603
:10ADB0009B68002BF2D15846FEF713F8D4F814B074
:10ADC000C4F814A0FEF707F881462046FFF728FED6
:10ADD0004846FEF706F823694BB1FDF7FCFF8146B4
:10ADE00021692046FFF78AFD4846FDF7FAFFE36830
:10ADF00013B121682046984700F06CF8D844A5EBC1
:10AE0000080581460544FDF7E6FF013683462246E4
:10AE1000C846A4E700221A70AEE7022000F09AF8B4
:10AE2000B3E7BDE8F88F00BF4E2700205827002069
:10AE3000442700205027002010B5FDF7CCFF034B1E
:10AE40001C78FDF7CEFF204610BD00BF5027002024
:10AE50001FB500241C4B012118689A88029053F8F2
:10AE6000060FADF80C201B7900903E208DF80430C1
:10AE7000FDF7DCFA02A88DF808408DF80C40FEF7CB
:10AE8000F3FB694601208DF80040FEF7B1FB4FF05F
:10AE9000904340F2FF319A6922F47F7222F003025C
:10AEA0009A610A4A11609A6A12F00802FBD11A628A
:10AEB0000120FEF7B7FB4FF48052054BC3F8802109
:10AEC0001A6004B010BD00BF367D03001420004896
:10AED00000E100E04FF090439A6A1207FCD4186A30
:10AEE000704700004FF09042936A1907FCD4136A30
:10AEF000116C5269520604D4CA1A022A01D8994226
:10AF00000ED1C21A012A98BF981CB0F1FF3F28BF8A
:10AF100001304FF0904318649A6942F040029A6100
:10AF2000054A13783BB14FF09041CB6B43F00203DD
:10AF3000CB630023137070474C0C002082074FF046
:10AF4000904200F00103916948BF43F040030B4376
:10AF500093617047830700F001020AD50121084B75
:10AF600042F0400219704FF09041CB6B23F0030385
:10AF7000CB634FF090418B6923EA02038B617047EA
:10AF80004C0C00204FF0904301285B6904D002284C
:10AF900005D1C3F38010704703F001007047002013
:10AFA0007047000010B5FDF716FF4FF090430446C0
:10AFB0005B695A06074A03F0010003F0510348BFDA
:10AFC00040F002001360FFF7ABFE2046BDE81040E2
:10AFD000FDF707BF142000483E20FDF771BA08B501
:10AFE000FBF77CF9FBF7B4F9FBF7B4F9FBF7BDF914
:10AFF000BDE80840FBF7C2B908B5FBF7C6F9FBF797
:10B00000C5F9FBF7C5F9BDE80840FBF7C3B9000077
:10B0100010B50446FBF738FF4FF47A73B0FBF3F03A
:10B020005C43074BB3FBF0F0B4FBF0F40320B4FB3C
:10B03000F0F018B1BDE8104000F00AB810BD00BF34
:10B0400040420F000000000000000000000000006F
:10B05000013800D0FCE77047242070474420704737
:10B060004C2070479820704738B50446FDF7ACFE79
:10B07000054620462CF04CFB04462846FDF7A8FE6A
:10B08000204638BD70B504460E46FDF79DFE31469C
:10B09000054620462CF0FCFA04462846FDF798FEAB
:10B0A000204670BD38B50546FDF78EFE044628469D
:10B0B0002CF036FB2046BDE83840FDF789BE002362
:10B0C000F0B51D460439854201D11846F0BD4F68E0
:10B0D000FC1A41F8044F52F825600135B4422CBFE8
:10B0E0004FF0000C4FF0010CA41B9F422CBF634695
:10B0F0000CF101030C60E6E72DE9F04384460D46B0
:10B100004FF0000E02F14004BCF10F0F54F8408CD8
:10B1100005F1400504F1400400F2BA806FF00F041D
:10B120004FEA101C04FB0C004FEA8C1C072801EBB3
:10B130000C0502EB0C0440F2938051F80C600838C7
:10B14000A3FB06671EEB060E2CBF4FF001094FF064
:10B15000000918EB0E0142F80C102CBF012200224E
:10B160006E68B944A3FB06674A4492192CBF0121BB
:10B170000021666801EB070C92194FF0000128BF0F
:10B1800001216260AE686144A3FB066789192CBF88
:10B1900001220022A66802EB070C89194FF0000279
:10B1A00028BF0122A160EE686244A3FB06679219E2
:10B1B0002CBF01210021E66801EB070C92194FF02A
:10B1C000000128BF0121E2602E696144A3FB0667EC
:10B1D00089192CBF01220022266902EB070C89196C
:10B1E0004FF0000228BF012221616E696244A3FB77
:10B1F000066792192CBF01210021666901EB070C3B
:10B2000092194FF0000128BF01216261AE696144CB
:10B21000A3FB066789192CBF01220022A66902EB55
:10B22000070E89194FF0000228BF0122A161EE69C3
:10B230007244A3FB066792192CBF4FF0010E4FF02A
:10B24000000E05F1200CE5690EEB070152194FF0D5
:10B25000000E28BF4FF0010E6546E2618E44203497
:10B260002146800005EB000C654551F8042B40F0A9
:10B270009E8104442368002213EB0E0328BF0122A1
:10B2800044F8043B4FF0010E002AF3D1BDE8F083EF
:10B2900055F8406CACF1100CA3FB06671EEB060ED4
:10B2A0002CBF4FF001094FF000091EEB08062CBF20
:10B2B0004FF001084FF0000844F8806C55F83C6CE2
:10B2C000B944A3FB0667C84418EB06082CBF4FF02F
:10B2D000010E4FF0000E54F87C6C0EEB070916EBD4
:10B2E00008064FF0000E28BF4FF0010E44F87C6CAA
:10B2F00055F8386CCE44A3FB06671EEB060E2CBF38
:10B300004FF001084FF0000808EB070954F8787C6B
:10B310004FF0000817EB0E0728BF4FF0010844F864
:10B32000787C55F8346CC844A3FB066718EB060814
:10B330002CBF4FF0010E4FF0000E54F8746C0EEB62
:10B34000070916EB08064FF0000E28BF4FF0010E5C
:10B3500044F8746C55F8306CCE44A3FB06671EEBC2
:10B36000060E2CBF4FF001084FF0000808EB07094C
:10B3700054F8707C4FF0000817EB0E0728BF4FF011
:10B38000010844F8707C55F82C6CC844A3FB066790
:10B3900018EB06082CBF4FF0010E4FF0000E54F8CA
:10B3A0006C6C0EEB070916EB08064FF0000E28BF79
:10B3B0004FF0010E44F86C6C55F8286CCE44A3FB9A
:10B3C00006671EEB060E2CBF4FF001084FF0000879
:10B3D00008EB070954F8687C4FF0000817EB0E07DC
:10B3E00028BF4FF0010844F8687C55F8246CC84425
:10B3F000A3FB066718EB06082CBF4FF0010E4FF0B9
:10B40000000E54F8646C0EEB070916EB08064FF0BB
:10B41000000E28BF4FF0010E44F8646C55F8206C04
:10B42000CE44A3FB06671EEB060E2CBF4FF00108AF
:10B430004FF0000808EB070954F8607C4FF0000853
:10B4400017EB0E0728BF4FF0010844F8607C55F851
:10B450001C6CC844A3FB066718EB06082CBF4FF012
:10B46000010E4FF0000E54F85C6C0EEB070916EB62
:10B4700008064FF0000E28BF4FF0010E44F85C6C38
:10B4800055F8186CCE44A3FB06671EEB060E2CBFC6
:10B490004FF001084FF0000808EB070954F8587CFA
:10B4A0004FF0000817EB0E0728BF4FF0010844F8D3
:10B4B000587C55F8146CC844A3FB066718EB0608C3
:10B4C0002CBF4FF0010E4FF0000E54F8546C0EEBF1
:10B4D000070916EB08064FF0000E28BF4FF0010ECB
:10B4E00044F8546C55F8106CCE44A3FB06671EEB71
:10B4F000060E2CBF4FF001084FF0000808EB0709BB
:10B5000054F8507C4FF0000817EB0E0728BF4FF09F
:10B51000010844F8507C55F80C6CC844A3FB06673E
:10B5200018EB06082CBF4FF0010E4FF0000E54F838
:10B530004C6C0EEB070916EB08064FF0000E28BF07
:10B540004FF0010E44F84C6C55F8086CCE44A3FB48
:10B5500006671EEB060E2CBF4FF001084FF00008E7
:10B5600008EB070954F8487C4FF0000817EB0E076A
:10B5700028BF4FF0010844F8487C55F8046CC844D3
:10B58000A3FB066718EB06082CBF4FF0010E4FF027
:10B59000000E54F8446C774416EB08064FF0000E8A
:10B5A00028BF4FF0010E44F8446CBE44ACE555F89A
:10B5B000046BA3FB06781EEB070E2CBF01260026AA
:10B5C0001EEB02022CBF4FF0010E4FF0000E46445E
:10B5D00041F8042CB64447E601F18041013900EB03
:10B5E00081018842034600D970471B680A681BBA6C
:10B5F00012BA40F8042B41F80439F2E70023012283
:10B600008360C0E90023704710B5044668B18068C4
:10B6100030B16168890001F0C7FDA068FFF742FD05
:10B6200000230122C4E90023A36010BD42F210737D
:10B63000994270B504460D4602D96FF00F0070BDF7
:10B6400043688B4216D204212846FFF71BFD0646AD
:10B650000028F2D0A16859B1626892002CF077F806
:10B660006168A068890001F09FFDA068FFF71AFDDE
:10B67000C4E901560020E2E7884270B505460E464F
:10B6800003D04C681CB9FFF7BFFF00200DE0631E1C
:10B69000A0005BB96A685C1C3368A2422B600ED2C2
:10B6A00021462846FFF7C2FF88B170BDB268024448
:10B6B00052F8042C0438002AECD1013BE9E7A868D1
:10B6C000121B9200002100EB84002CF064F8A20011
:10B6D000B168A8682CF03BF8D7E770B50E46012199
:10B6E0000446FFF7A3FF054688B962680146920049
:10B6F000A0682CF050F8A36886EAE672002EA2EB50
:10B70000E6721A60B4BF4FF0FF330123236028466E
:10B7100070BD4368DBB181685A1E9B007AB9002076
:10B720004FF0004351F82210194204D10130202873
:10B730004FEA5303F8D1C0EB421020307047C818CD
:10B7400050F8040C043B0028E9D1013AE6E718461A
:10B750007047F8B50F4612F0030118BF0121436886
:10B7600001EB9205AB420446164618D10021204653
:10B77000FFF7B3FF00BB0346B3421DD0FA5CD4F819
:10B7800008C0D90023F0030501F0180102FA01F105
:10B790005CF8052001330A434CF80520ECE7FFF77D
:10B7A00033FF00230122A360C4E900232946204679
:10B7B000FFF73CFF0028D9D0F8BD2DE9F04112F089
:10B7C000030418BF0124436804EB9204A342074614
:10B7D0008846154608D100213846FFF77EFF064609
:10B7E00088B13046BDE8F081FFF70EFF002301224B
:10B7F000BB60C7E9002321463846FFF717FF06461E
:10B800000028E8D0EDE7B8F1000FEAD0BB68C5EB3F
:10B8100084002A46414618442BF099FF002CE0D0C2
:10B820002146B868FFF7D8FEDBE7F8B543680E4657
:10B830009B0093421DD3114699420CD1944600219E
:10B840008C4518D1934204D2D21A0021F0182BF063
:10B85000A2FF00201DE0876801F0030421F0030C23
:10B86000E50057F80C40EC4014F0FF0F0FD1013108
:10B87000E2E79C46E3E7876801F0030421F0030E4A
:10B88000E50057F80E40EC4074540131D8E76FF0F2
:10B890000700F8BDF8B505466C680846A400944258
:10B8A0001CD2121B8E1800212BF075FF3046224649
:10B8B000002310449A4213D10020F8BDAF6803F072
:10B8C000030123F0030CCE0057F80C10F14011F0E7
:10B8D000FF0F11D10133A342F0D1E9E71346FAE794
:10B8E000AF6803F0030123F00306CC00B95901331C
:10B8F000E14000F8011DDDE76FF00700DDE7F8B576
:10B9000006460D464C0901F01F07FFF702FF73685A
:10B910002844B0EB431F03D874B92FBB00200AE0C2
:10B9200010F01F0118BF012101EB50113046FFF745
:10B930007DFE0028F0D0F8BD7368A00003F18042BE
:10B94000013A121B9200A34207D800229B00043B3D
:10B95000191DE2D0B168CA50F9E7B168013B8D58B2
:10B9600011440D50043AEEE70021D6F804C0A300BC
:10B97000C7F1200EA445D1D9B5680134E85800FAC2
:10B9800007F20A43EA5020FA0EF10433F2E7436863
:10B99000F0B44D09AB4203D301F01F0104D169B3E8
:10B9A000F0BC0021FFF799BEE5B929B100259A0046
:10B9B000C1F1200C043ABBB9F0BC00207047846888
:10B9C000561954F8266044F8226001325C1B9442F8
:10B9D000F5D80025A200A342E7D986680134B55006
:10B9E0000432F8E70022F1E78768013BBE5826FAE7
:10B9F00001F42C43BC5006FA0CF5DBE7002BDBD03E
:10BA00000A46E3E770B543689A0033B94A68940080
:10BA100062B9181C18BF012016E08468144454F859
:10BA2000044C043A002CF1D1013BEEE78D682E194D
:10BA300056F8046C043C0EB9013AE9E793420DD87C
:10BA40000ED39A000BB9184670BD8168043A8C5821
:10BA5000A9588C4202D803D3013BF3E70120F3E756
:10BA60004FF0FF30F0E770B543689A0023B94A6899
:10BA7000940052B99BB924E08468144454F8044CEF
:10BA8000043A002CF3D1013BF0E78D682E1956F8EB
:10BA9000046C043C0EB9013AEBE7934202D9026808
:10BAA000104670BD096801D24A42F9E70268002ACF
:10BAB00001DD002912DB002901DD002A10DB9900DD
:10BAC0000BB91A46ECE78468043966586C58A642EC
:10BAD000E6D801D25242E3E7013BF1E70122DFE77A
