:10600000C00A0020616E00005D6E00005D6E000041
:10601000E9A300005D6E00005D6E00005D6E000093
:106020005D6E00005D6E00005D6E00005D6E000044
:106030005D6E0000407E0300596200005D6E00004E
:106040005D6E00005D6E00005D6E00005D6E000024
:106050005D6E00005D6E00005D6E00005D6E000014
:106060005D6E00005D6E00005D6E00005D6E000004
:10607000A9B200005D6E00005D6E00006D6400005E
:106080005D6E00005D6E00005D6E00005D6E0000E4
:106090005D6E0000C17300005D6E00005D6E00006B
:1060A0005D6E0000D1740000AD7400005D6E0000F4
:1060B0005D6E0000956C03005D6E0000E5750300E9
:1060C0009D750300997503005D6E0300E175030083
:1060D000A1750300B9750300A57503003D760300A3
:1060E000655103002D530300257603005D6E00000B
:1060F0006DA200005D6E00005D6E00005D6E000030
:106100005D6E00005D6E00005D6E00005D6E000063
:106110005D6E00005D6E00005D6E00005D6E000053
:106120005D6E00005D6E00005D6E00005D6E000043
:106130005D6E00005D6E00005D6E00005D6E000033
:1061400010B5054C237833B9044B13B1044800E073
:1061500000BF0123237010BD2410002000000000A8
:1061600094CC030008B5034B1BB10349034800E07E
:1061700000BF08BD000000002810002094CC0300E0
:10618000A3F5803A704700BF174B002B08BF134B95
:106190009D46FFF7F5FF00218B460F461348144A32
:1061A000121A31F04CFD0E4B002B00D098470D4BCE
:1061B000002B00D098470020002104000D000D485E
:1061C000002802D00C4800E000BF31F0CDFC2000D8
:1061D000290000F035F831F0B3FC00BF00000800E2
:1061E0000000000000000000C00A00202410002071
:1061F00008460020000000000000000070477047C3
:1062000038B543780446012B05D0022B0BD0002271
:106210000120114603E00246002012F8011BBDE8F0
:10622000384000F0F1B9054615F8011B00202A4658
:1062300000F0EAF929462078BDE8384000F0E7B9D7
:1062400008B505F04EF8FFF7D9FF05F057F8FFF74E
:10625000D6FF04F043FAF8E709F024B908B5064878
:1062600008F0C0FE054808F0EDFE09F0BCFABDE8F4
:10627000084013F065BA00BF30800300F87F0300C8
:1062800000B5C3B009F018F809F041F848B100F0C2
:10629000F5F930B101A81EF0FFFD10B901A800F01A
:1062A000B9F943B05DF804FB08B5012000F016FD14
:1062B000202000F013FDBDE80840402000F00EBD96
:1062C00008B50321802002F0B3FC03214FF4806065
:1062D00002F0AEFC03214FF4906002F0A9FC08210B
:1062E0004FF4C06002F0A4FC08214FF4F06002F00B
:1062F0009FFC08213E2002F09BFC08212D2002F08B
:1063000097FC002008BD000008B5174B1B68C3F3BD
:106310000743012B0ED1154B04205A6E4FF48023F6
:106320001349520358BF134A4B6601F510410862E6
:1063300058BF536603F0A4FD00F0F9FC03F020FD04
:1063400003F0BCFD03F03EFD03F07AFD03F07EFD9B
:10635000FFF7B6FF03F024FD00F0DEFC01F0CAF801
:10636000BDE8084004F0D2B80080E00F0080004093
:106370000090004000A0004008B501F071F8BDE8B1
:10638000084000F07FB808B504F0E2FC03F098FD87
:1063900006F038FCBDE8084003F07CBF08B503F008
:1063A000E7FC03F0D9FCBDE80840FFF757BF08B58C
:1063B00000F064FABDE8084000F0B0B8704700F0A3
:1063C00055BCFFF75DBF00F0B9B801207047012050
:1063D000704710B508F0DCFF044600F0B7F900285C
:1063E00008BF002400F072FC002808BF0024FFF75B
:1063F000ECFF002814BF2046002010BD38B504F083
:106400005BFA044608F0D2FF042825D002284FF09A
:10641000000508BF012400F0B1F904281ED00228AD
:1064200008BF012400F048FC042819D0022808BF46
:10643000012401F0EBFE042814D0022808BF012437
:10644000FFF7C5FF04280FD0022808BF0124002D44
:1064500018BF0024204638BD0125DCE70125E1E70F
:106460000125E6E70125EBE70024F3E700F0C6BAD3
:1064700018B1034B1860002070472520704700BFFB
:106480009810002010B5054C0549206801F0D0FC9B
:106490002068BDE81040FFF7EBBF00BF300B0020C5
:1064A0000C0B0020014B1868704700BF98100020AB
:1064B00038B502F06CFD084D04462846002130F83E
:1064C000022B31F0BCFB002320462B8085F80631DF
:1064D000BDE8384002F061BD9E10002038B502F0E2
:1064E00056FD084D04464FF48272A81C002131F07D
:1064F000A6FB002320462B8085F80631BDE83840F6
:1065000002F04BBDD0110020002208B511464A20F0
:106510001DF058FBBDE80840FFF7CABF08B5FFF7FC
:10652000C7FFFFF7DBFF00F0FFF90022014B1A70F5
:1065300008BD00BF9C100020012070472C4970B599
:1065400091F806312B4C3BB32B4E337823BB94F898
:1065500006313BBBD1F80200284A81F8063120F40D
:106560007F4323F0070393422FD18A7942B3881DDA
:10657000FFF746FE1EF046F90546FFF799FF012397
:1065800028683370030203F4E063C0F30720184364
:106590002946043000F0ACF994F8063133B3164BB9
:1065A0001B781BBB0023012284F80631124B208884
:1065B00013491A7000F09CF9BDE87040FFF78EBFD8
:1065C000114601201DF022FED4E70E4A934209D164
:1065D0008B791BB1881D00F0D9F8CBE701201DF0A5
:1065E00033FEC7E706311EF073F9C3E770BD00BF85
:1065F0009E100020D01100209C1000202000FF00E1
:10660000D21100202000FF0180B21DF0FFBD1DF05F
:106610000BBE0000F8B50546006820F47F4020F06E
:10662000070000F015F928BB2846FFF785FF08B3DF
:106630002A68114E140204F4E064C2F307221443E2
:1066400002F0A5FC33880434C3F5827294420746F5
:106650000BD802332246F018294631F0C9FA01233B
:10666000328886F80631144434803846BDE8F84054
:1066700002F093BCF8BD00BFD0110020084A138877
:10668000C3F58273984208D892F806312BB9054BAE
:1066900093F8060180F0010070470020704700BFAA
:1066A000D01100209E1000200022014B1A7070476C
:1066B0009C100020F0B50D46044685B000B1FEE701
:1066C000039202F064FC1E4F06463888AAB2C0F559
:1066D00082739A42039918D80230384431F088FA0C
:1066E0003988294489B20329398018D9D7F802207A
:1066F0000124130203F4E063C2F3072213430433BB
:106700008B4202D887F806410224304602F045FC4D
:10671000022C06D10B4800F049FA70B1FEE70124C3
:10672000F3E7012C09D100234FF4FA71064A05481A
:10673000009300F055FA00B1FEE705B0F0BD00BFD0
:106740009E100020A811002009650000084B93F856
:10675000060150B9074B93F806311BB9064B187860
:1067600080F0010000F0010070470020FAE700BF50
:106770009E100020D01100209C10002008B5FFF7CB
:10678000E5FF002814BF0120042008BDF8B54378B8
:106790000278012B14D0022B2BD063BB052A2AD1FF
:1067A000294C2278082A4AD02849D0F802000D4600
:1067B000DEB2B24224D845F822000132227016E03F
:1067C000052A18D1204D2B78002B3AD01F4C0022DF
:1067D0002146D0F8026054F8047BD0B2BE421FD1EB
:1067E0000024013B41F822402B7098420FDB00202F
:1067F00002E0012A1AD00120BDE8F8401DF024BDB6
:1068000051F8046B0133B042D2D12E20F4E7421C80
:1068100051F8225041F8205041F82240D0B2E4E72C
:106820000132D0B29842D6D32D20E5E720220021B4
:10683000064831F004FA0020034B1870DCE71C20F6
:10684000DAE71B20D8E700BFF8120020D81200209A
:1068500010B5084B084A1C780023D9B28C4201D8E5
:10686000002010BD52F8041B01338842F5D10120ED
:10687000F7E700BFF8120020D812002038B54FF417
:1068800082720021144831F0DAF94FF4827200214B
:10689000124831F0D4F9FFF705FE114A0368114D93
:1068A0009342286004D002F58042934211D0FEE763
:1068B0000D230D4A0020137001F048FE2B6804469A
:1068C000186803F02DF8B4FBF0F0084B8000186056
:1068D00038BD0F23EDE700BFFA120020041400209A
:1068E00000C0054008150020F91200200014002007
:1068F000B0F5827F07B5024600D9FEE70190074850
:1069000031F076F90648074B019A0449006801F016
:106910003FFC00B1FEE703B05DF804FB0414002067
:10692000081500209569000008B5144B93F9003054
:10693000002B0CDB012203F01F015B099B0003F11C
:1069400060438A4003F56143C3F880211A600C4B11
:106950000C4A18680C4903685A6603F500529164A2
:10696000DA6C0A4942F42042DA644FF48272084B2E
:1069700001F060FB00B1FEE708BD00BFF912002086
:1069800008150020FF002400FFFF0100FA1200207C
:10699000D9690000F8B506460C4600250C4F304674
:1069A00001F050F9830605D43A68ABB29A4205F17A
:1069B0000105F4D8201E18BF0120FFF775FEBDE8C1
:1069C000F8404FF482720021024831F038B900BF1C
:1069D0000014002004140020084608B500381946A9
:1069E00018BF0120FFF766FEBDE808404FF4827231
:1069F0000021014831F023B9FA1200202DE9F843B3
:106A0000564C23681B689B6C1B0440F1A58002F068
:106A1000BEFA2468054623685A6E22F4E0225A66BC
:106A20005A6E42F480225A664FF4004203F5005336
:106A30009A6402F0ACFAA36A06469B889BB243B9FB
:106A400002F0ABFAFFF770FF2846BDE8F84302F00A
:106A5000A4BAE06800F04AFC0023D4F8288084F847
:106A6000303002F094FAB8F804309BB2002BE7D033
:106A70001427B8F8029002F090FA1FFA89F907FB80
:106A800009F909F110014144E06800F077FC344B4A
:106A9000C844C8F81830D4F82880B8F804309BB23D
:106AA000B3B994F83530032B10D094F83630002B5E
:106AB00047D142F21C62042123795B0103F1804338
:106AC00003F570339950022223685A613046B7E7C4
:106AD00002F05DFAB8F804901FFA89F9B9F1000FD5
:106AE00004D102F05AFAD9F80C30FFDEB8F802905F
:106AF000B8F80230B8F806209BB20133B3FBF2F1CC
:106B000002FB11339BB2A8F80230B8F804301FFA28
:106B100089F9013B9BB2A8F8043007FB098802F011
:106B20003CFAD8F81490B9F1000FB4D0D8F80C2082
:106B3000D8F810300021D31A2046D8F80820C847CA
:106B4000A9E7022BC2D12068016C11F0020118BF25
:106B5000062102F027FCB9E7BDE8F88308150020FC
:106B6000097000F0002209490B684BB1834204D13F
:106B7000036A4AB11362012070471A461B6AF4E7A0
:106B80000028F5D0184670470B60F4E70C1500207C
:106B900091F8243033B90123034A81F82430136873
:106BA00001331360704700BF1015002010B5044674
:106BB00090B104F007F92046FFF7D4FF58B194F8DC
:106BC000240040B102F0E3F9044A1368013B13606A
:106BD00002F0E3F9002010BD2220FCE71015002090
:106BE0002DE9FF41044617461E4688469DF8285069
:106BF00009B9002D34D12046FFF7D8FFF0B984F849
:106C0000240003A94046E5B104F0CCF9B0B9CDE9C0
:106C1000000023462046134A039904F054F968B94A
:106C2000114AC4E90676136884F82550B3B11A46B0
:106C30001B6A002BFBD114620023236204B0BDE861
:106C4000F08104F0AFF90028F8D123462046CDE9C1
:106C50000055044A039904F013F9E0E71460EBE7E8
:106C60002120EBE7916B00000C15002070B5104D52
:106C70002B681BB100260F4B1C6804B970BD94F83B
:106C8000243093B102F083F92B6884F82460013B2F
:106C90002B6002F082F994F8253013B92046FFF7F3
:106CA00061FFD4E9063120469847246AE5E700BF32
:106CB000101500200C150020034B1B68002B0CBF87
:106CC00001200420704700BF10150020024B1868F7
:106CD000B0FA80F04009704710150020082808B568
:106CE0000DD004DC0138012809D90E2013E020283A
:106CF0000AD04028F9D100230422194602E00422D8
:106D000000231146184603E0042200231146012007
:106D100002F002FC002008BD08B501213A2001F074
:106D2000C9FBFFF7C1FABDE8084000F005B8012132
:106D30003A2001F0BFBB00002DE9F04786B06C4659
:106D4000424DDFF814810FCD0FC495E803000125F3
:106D500084E8030001213A2001F0ACFB0121282046
:106D600001F0A8FB3A4B6946404602938DF80E505D
:106D700002F0B0FE2B4604220021022002F0CCFBE0
:106D80002A4629460023022002F0C6FB02212B4698
:106D90000846042202F0C0FB042203212B460220F5
:106DA00002F0BAFB4FF002132A4C0226C4F8303628
:106DB000A3F58033C4F82C361C230827C4F83466A6
:106DC00004F5005AC4F81C364FF4487004F0A2FAD7
:106DD00004F580591420CAF8707004F09BFA23203F
:106DE000C9F8707004F096FAB9214046CAF870707C
:106DF00002F0CAFE002330461A461946C9F87070E0
:106E000002F08AFB002329461A46304602F084FB32
:106E10002B4631463046002202F07EFB2B460022F4
:106E20000321304602F078FB404602F0A9FD002124
:106E30002820C4F83016C4F82C16C4F83416C4F848
:106E40001C1601F037FB06B0BDE8F0876080030038
:106E500000127A0000C0034000C00540FEE70000B9
:106E600008B500F013F8064B064A07498B4201D3D8
:106E7000FFF78AF952F8040B43F8040BF6E700BF5A
:106E8000C00A00209CCC030024100020044B054ABB
:106E90009A60D3F8882042F47002C3F888207047C3
:106EA00000ED00E000600000014B1868704700BF73
:106EB000380C0020084B1B6F03F00703022B04D093
:106EC000032B05D0012B05D0FEE7044B1868704753
:106ED000034BFBE70348704700800040380C00205C
:106EE0003C0C0020002D310108B5FFF7E3FF054BF6
:106EF0001B6FC3F303330133B0FBF3F0024B186095
:106F000008BD00BF00800040340C002000487047DE
:106F100000B4C404014B1868704700BF3C0C00204B
:106F2000054B1860054B1B6F03F00703032B01D1C2
:106F3000FFF7DABF704700BF3C0C00200080004024
:106F40000020704700487047002D31014FF4004089
:106F500070474FF47A707047014B1868704700BF54
:106F6000400C002000239B6AB3F5C04F03D2196880
:106F7000064A914203D000230370836070470122C8
:106F800002709A689B694260F7E700BF07B0CD5E68
:106F900000230360704703680B60016070470000C6
:106FA00005490A681318054883428CBF4FF0FF3229
:106FB0000B601046704700BF440C0020008000208A
:106FC0002DE9F04F9A46564B85B01B7806460F4682
:106FD0001546DDF83C909DF844B0DDF85080002B5C
:106FE00000F08D80072A00F28C800E9B002B00F0B1
:106FF0008880B9F1000F00F08480129BB3F5006F18
:107000007FDC012802D1109B002B7AD0454B03EB8B
:1070100005131B7B002B76D0434C102200216846C1
:1070200030F00DFE04EB45141022002F59D13946E3
:10703000204630F004FE43F210036380BBF1000FE2
:1070400003D1E37843F00303E370374A0E9B02EB6E
:10705000451CCCE90193129B6901013BC3F30A0073
:107060009DF84C30012E03F003034FEA836343EA9B
:10707000001E53582D48CDF800A000EA03004EEA48
:107080000003535041D113230CF1100ECCF80C30F7
:107090009CE80F008EE80F006FF00301DCF81C2065
:1070A000109B61F39F02012FCCF81C20CCF8143008
:1070B00003D1CCF81890CCF804300027194A2901E4
:1070C00002EB051342F80180159A28465A6069467A
:1070D00022469F605E7302F09FFA384605B0BDE815
:1070E000F08F0021204630F0AAFD4FF444736380F6
:1070F000BBF1000FA9D1E37843F03003A4E70C48BB
:10710000ECE70C48EAE70C48E8E7B8F1000FD4D107
:107110009CF8023068F304138CF80230CDE700BF0E
:107120009416002014150020941500200F80FFF302
:10713000028000F0018000F0078000F038B5124BAB
:1071400005461B78DBB1E0B101F021FF0F4A0023B7
:107150001146147B54B92B6001251A0101EB03136E
:107160001D738C5001F019FF204638BD0133082BE8
:1071700002F11002EDD101F010FF0548F5E70548D6
:10718000F3E70548F1E700BF94160020141500202E
:10719000048000F0028000F0018000F0154B13B570
:1071A0001868002301908DF8043001F0F0FE124BB6
:1071B0001C7824B101F0F1FE104802B010BD01228C
:1071C0001A7001F0EAFE0E4B01A81C731C7783F8BD
:1071D0002C4083F83C4083F84C4083F85C4083F8B3
:1071E0006C4083F87C4008238DF8073002F0E2F908
:1071F0002046E2E77880030094160020038000F028
:107200001415002010B588B00E9C009207940D9CB8
:10721000024606949DF8304005940B9C04949DF81A
:10722000284003940024CDE9013420460B46214632
:10723000FFF7C6FE08B010BD10B588B00E9C0092D6
:1072400007940D9C024606949DF8304005940B9CD3
:1072500004949DF8284003940024CDE9013420468D
:107260000B460121FFF7ACFE08B010BD0A4A08B575
:1072700012785AB107280BD8084A02EB00131B7B7F
:1072800043B1002102F088F9002008BD0448FCE762
:107290000448FAE70448F8E7941600201415002083
:1072A000028000F0018000F0078000F00A4A08B573
:1072B00012785AB107280BD8084A02EB00131B7B3F
:1072C00043B1012102F068F9002008BD0448FCE741
:1072D0000448FAE70448F8E7941600201415002043
:1072E000028000F0018000F0078000F00A4A08B533
:1072F000127852B107280AD8084A02EB00131B7B08
:107300003BB102F0D7F9002008BD0548FCE705486D
:10731000FAE70548F8E700BF94160020141500208E
:10732000028000F0018000F0078000F00D4B1B7818
:1073300093B1072812D889B10B4B03EB00131B7BC9
:1073400073B10A4BDA6A012303FA00F010401ABF46
:1073500000200B700870704705487047054870475B
:1073600005487047941600201415002000000440C2
:10737000028000F0018000F0078000F00B4A10B599
:1073800012780C4662B107280CD859B1084A02EBB2
:1073900000131B7B43B102F09FF92060002010BD59
:1073A0000448FCE70448FAE70448F8E7941600208C
:1073B00014150020028000F0018000F0078000F02A
:1073C0002DE9F843174B1F6D5B6D1F4000D5FEE79D
:1073D00001260025144CDFF85480DFF85490374222
:1073E00017D02368C8F850609BB1A16828460131C6
:1073F0006268A1609847637B012B0AD148B909EB09
:1074000045131A7B60F341021A731A7F60F341023D
:107410001A770135082D4FEA460604F11004DED133
:10742000BDE8F8830000044014150020002004404B
:107430009415002070B504460125084E04B970BDAE
:1074400094FAA4F0B0FA80F005FA00F324EA0304F9
:1074500056F82030002BF1D09847EFE7981600201F
:1074600008B5192001F09CFD28B14FF00072074BC0
:10747000C3F880211A601A2001F092FD28B14FF064
:107480008062024BC3F880211A6008BD00E100E071
:1074900038B504460D4601F07AFD034B43F82450FD
:1074A000BDE8384001F079BD98160020074BD3F8AD
:1074B0002404D3F8202403F50053104000F0553085
:1074C00020F05020C3F82004FFF7B4BF00C00340F1
:1074D000074BD3F82404D3F8202403F500531040BD
:1074E00000F0AA3020F0A020C3F82004FFF7A2BFCC
:1074F00000C00340024B1968024B186828F008BB13
:107500004C0C0020480C00207047000037B592005A
:1075100004460D46019230F083FC431C0BD060B949
:1075200029462046019A30F053FB0028044808BF42
:10753000002003B030BD0348FBE70348F9E700BF74
:1075400010E000F021E000F024E000F013B5044664
:1075500001A802F073F99DF80630012223804FF450
:10756000807300206380054B9B680A3303F01F0380
:1075700002FA03F3636002B010BD00BF0080E00FA9
:1075800002F0D8B808B502F0C5F8002008BD10B563
:10759000044644EA010313F00303084609D1934269
:1075A00001D1002010BD54F8231040F823100133FE
:1075B000F5E72146920030F01BFBF2E710B50446D8
:1075C00030F026FC431C15D0B0B90C4B20469B680C
:1075D0000A3303F01F020123934023F003032344E3
:1075E000984201D1002010BD50F8042B0132F7D091
:1075F0000348F8E70348F6E70348F4E70080E00FA4
:107600000EE000F021E000F024E000F008B501F009
:10761000B7FC014B186008BDA81D0020014B18687D
:1076200001F0B2BCA81D00200A460139014402F055
:107630008BBE000038B141B1013AB2F5006F044889
:1076400038BF00207047034870470148704700BFAB
:10765000037000F0027000F038B504460D4601F0EA
:1076600096FCA3889BB223B92B6001F096FC0648D8
:1076700038BD142263889BB202FB034408342C609B
:1076800001F08BFC0020F3E70B7000F0F7B5044627
:107690001646019101F07BFCA388E2889BB29A42D6
:1076A0000546019906D80023336001F076FC1248A4
:1076B00003B0F0BD142720883A4680B207FB004093
:1076C000083030F095FA2388E2889BB207FB034329
:1076D00008333360238828469BB20133B3FBF2F1B1
:1076E00002FB11339BB22380A38801339BB2A3809A
:1076F00001F053FC0020DBE70A7000F0034610B5F0
:1077000093F836300068022B0CD101F055FE044688
:1077100030B103F041FC24235843B0FBF4F40134AE
:10772000204610BD02F0FCF8F1E7000090F835307B
:10773000022B0BD13023427F90F821005A43044B97
:107740009B5823FA00F000F00100704700207047BA
:1077500014C00340002313B51D4A52F8044B94F89B
:10776000211081420ED00133042BF6D102B010BD9E
:107770000028FBD19DF80730002BF7D0A068FFF759
:1077800075FDF3E794F83530022BEFD12046FFF773
:10779000CDFF637E2076022BE8D194F8323003F0DF
:1077A000FF02002BE2D1A0680DF107018DF8072040
:1077B000FFF7BCFD237E1BB194F83330002BD7D0EC
:1077C0000023A06884F83330FFF770FDCEE700BFD8
:1077D0005C1E0020104930B50B78104A2BB9C2E965
:1077E0000033C2E9023301230B700C4C0023214605
:1077F00051F8045B854208D00133042BF8D10021F5
:1078000054F8043B1BB942F82100002003E0013189
:107810000429F5D1024830BD6C1E00205C1E0020FA
:10782000027000F010B50446FFF7B8FC002104F127
:107830000800FFF783FC014620B904F10C00FFF7B4
:107840007DFC00B1004810BD0E7000F090F836309D
:107850006BB942F21C62042103795B0103F180439E
:1078600003F570339950022203685A617047022B66
:1078700007D10068016C11F0020118BF062101F068
:1078800091BD704790F8363083B9012203685A6180
:107890009A69D207FCD541F21C62042103795B018D
:1078A00003F1804303F5703399507047022B07D1E1
:1078B0000068036C9B074CBF0521092101F072BDD4
:1078C0007047000008B590F8363083B90422036889
:1078D0005A619A699207FCD541F21C621021037922
:1078E0005B0103F1804303F57033995008BD022B0F
:1078F000FCD10068036CDB074CBF0521062101F0B9
:1079000051FD0222014BC3F8C020EFE700D4034031
:1079100070B5054601F03BFBAC6B0646013CAC6321
:107920004CB901F02DFB05462146012002F01EFE58
:10793000284601F029FB3046BDE8704001F02DBB20
:1079400013B591F836200B68022A0CBF1B6C9B699B
:107950000C469B06084606D5FFF7DAFF022384F89B
:107960003C3002B010BDFFF7C9FE00230146CDE94F
:107970000033034A234604F1400003F081FAF0E7A4
:107980004179000070B5044601F001FBA36B054688
:107990004BB901F0F5FA01210646084602F0E6FD72
:1079A000304601F0F1FAA36B28460133A363BDE82A
:1079B000704001F0F2BA0000012370B580F8303059
:1079C00090F8363004460E4686B0A3B905682435D3
:1079D0002046FFF7D7FF0D4B326803930023029335
:1079E0007368616901930123E068009304942B4656
:1079F000FFF722FC07E0022B02D105683435E7E7E8
:107A0000002380F8303006B070BD00BF8D800000CC
:107A100001232DE9F04180F8313090F836300446EA
:107A20000E4688B06BBB256801F0B1FA04F140083E
:107A300007460DF11F0140463C3503F005FA40B9F9
:107A40009DF81F302BB1404603F0BCF92046FFF7EC
:107A50005FFF3846012701F0A0FA204684F83C7009
:107A6000FFF790FF0B4B2A460393002302937368A2
:107A70002169CDE90073A06833680494FFF7C2FB65
:107A800004E0022BCFD0002380F8313008B0BDE8ED
:107A9000F08100BFE17A000038B504460D4601F0E0
:107AA00076FAA3889BB223B92B60BDE8384001F079
:107AB00074BA142263889BB202FB034308332B6021
:107AC0006388E2889BB20133B3FBF2F102FB11330E
:107AD0009BB26380A388013B9BB2A380E5E70000D3
:107AE000F0B585B0D06A03A91446FFF7B5FD064688
:107AF0002046FFF703FE002501462346CDE9005549
:107B0000164A04F1400003F0BBF9154B9E421FD00A
:107B1000039B1D619D6001F03AFA039A0646D768FF
:107B200027B1D2E9002329462046B847E06A03A9D5
:107B3000FFF7B2FFE06A83889BB263B103A9FFF746
:107B40008BFD20460399FFF763FF304601F025FACD
:107B5000012005B0F0BD84F83130F6E7417900002E
:107B60000B7000F01FB504460B46C07EE17F002B72
:107B700039D00123042201F0CFFC0123022294F822
:107B80002010207F01F0C8FC94F83530022B19D169
:107B90000023012294F82110607F01F0BDFC002336
:107BA000042294F82210A07F01F0B6FC012394F87F
:107BB000212001931146607F009301F055FC0020C5
:107BC00004B010BD032BFAD10023012294F8211038
:107BD000607F01F0A1FC0023042294F82210A07F12
:107BE00001F09AFCEBE71A46039301F095FC039B26
:107BF00094F820101A46207F01F08EFC94F835206E
:107C0000039B022A12D11A4694F82110607F01F0DA
:107C100083FC039B94F822101A46A07F01F07CFCA1
:107C2000039B94F8212001930123C3E7032AC6D1C3
:107C30001A4694F82110607F039301F06DFC039BBA
:107C40001A46CAE790F8363013B903689869704746
:107C5000022B06BF0368186C00207047F8B5054674
:107C60000E461746FFF7E6FC002868D1152001F004
:107C7000A5F90446EA6A93889BB213B195F83230AD
:107C8000E3B195F83630F3B92B689C6904F002042F
:107C90001CB92846FFF716FE0024012385F834306E
:107CA00095F83630CBB93744BE42286810D1836985
:107CB0009A06FCD51CB300242046F8BD002CDAD06F
:107CC000FFF77EFBD6E7022BE3D12B681C6CDDE7C8
:107CD00016F8011B01F062FFE6E7022BEAD13744F8
:107CE000B742286806D142F22003026C33EA02024E
:107CF000FBD1DFE716F8011B01F059FBF0E795F81F
:107D000036306BB942F21C6210212B795B0103F112
:107D1000804303F57033995008222B685A61CBE7F2
:107D2000022BC9D12868036CDB074CBF092121460F
:107D300001F038FB0222034BC3F8C020BCE7044625
:107D4000BAE700BF00E4034010B5044680B190F8E4
:107D500032302BB9FFF7EAFC10B9A068FFF786FABA
:107D6000002094F832300133DBB284F8323010BD99
:107D70000048FCE7027000F010B50446A0B190F88E
:107D800032309BB190F83230012B05D1FFF7CEFC99
:107D900010B9A068FFF78AFA002094F83230013B4E
:107DA000DBB284F8323010BD0148FCE70148FAE745
:107DB000027000F0057000F037B590F835500446B9
:107DC000022D1DD1012290F82230457E817F9A40FC
:107DD0003020164B25B900FB013342F2100105E0BB
:107DE000012D07D100FB013341F210015A50002050
:107DF00003B030BD247E00FB0133002CF4D1ECE74E
:107E0000012DF4D1037E73B911238DF80730FFF7EC
:107E10009BFF2A4620460DF10701FFF71FFF204672
:107E2000FFF7AAFFE3E71323EFE700BF00C003401B
:107E30002DE9F0410446764F88B001AE0D460FCFD4
:107E40000FC697E8070086E80700002C00F0DE80E8
:107E500025B9704E304608B0BDE8F08158220021A7
:107E600020462FF0ECFE00232046A363FFF7B2FC70
:107E700006460028EED12B7D84F835302B6884F837
:107E8000360023602A7B2271012284F83C20624A5A
:107E9000934240F09F802823A384604B23614FF4DA
:107EA000802300266361D5E90723A26216805680ED
:107EB000968084F83060E3621E805E809E806B68EE
:107EC00084F831600393EB8984F83360ADF81430A3
:107ED0002B8A0121ADF81230AB7C3A208DF810309E
:107EE000EB7CDFF84C818DF8163005238DF81130CE
:107EF00000F0E0FA0121A08C00F0DCFA286801A96A
:107F00008DF8046001F06AFD14222B7B08EB43130B
:107F1000C3F81C262E7AA87A46EA0042C3F8342613
:107F2000697AEA7A41EA0247C3F82C76E676E07786
:107F3000217784F820206B7D01216377AB7D20467B
:107F400084F82130EB7DA3772B7E84F82230FFF775
:107F500009FE064600287FF47DAF01F018F82B7D5E
:107F60000746032B41D141F21C6202212B7B08EB17
:107F7000431848F8021004212A685B0102F5805278
:107F8000D165297EEA7D03F1804342EA014203F58F
:107F90007433C3F82826A97D6A7D42EA0142C3F8FA
:107FA00024264FF0FF32286800F500539A642B7D99
:107FB000032B0CBF0521042101F0D3FC4FF44062D8
:107FC0002B6820465A61FFF72DFC0646384600F024
:107FD000E4FF3FE7124A93427FF43BAF2923A38497
:107FE000104B23614FF4A0235BE7022BD9D194F807
:107FF00021000D49FFF74CFAFFF732FA4FF40073F6
:1080000020462383A676FFF7D7FECAE7074E21E76F
:10801000A0800300037000F000C0054002000400CF
:10802000000006400200050055770000027000F0D5
:1080300000C00340F0B587B005461646FFF7FAFAD0
:108040000446F0B90493104BCDE901166A46A86ABC
:1080500001A903960593FFF719FB044688B995F823
:10806000303073B92846FFF70DFC28460099FFF71A
:10807000A3FC95F83530032B03D028462C76FFF768
:108080009BFE204607B0F0BD017000F073B5906A0A
:1080900001A91446FFF7E0FA05462046FFF738FC31
:1080A000384B9D4231D094F83600019B00283AD1DC
:1080B0002268916C11F400712AD0334998601961DB
:1080C0004FF4007302F50052936400F060FF0199D1
:1080D0000646CD6835B14A688B682046D31A0A68CF
:1080E0000969A847A06A01A9FFF7D6FCA06A85889C
:1080F000ADB2002D37D001A9FFF7AEFA20460199A5
:10810000FFF75AFC304600F048FF012002B070BD76
:10811000906CC50523D51D489960186102F5005281
:108120004FF48073D0E7022819D12268516C11F402
:10813000007109D0144902F50052196100219960BB
:108140004FF400735364C0E7506CC00507D50F4867
:108150009960186102F500524FF48073F2E7002233
:108160001A619A60B1E7012320462376FFF724FEC7
:1081700094F8353084F83050032BC3D02046FFF7F5
:1081800065FBBFE70B7000F00D7000F00C7000F0A5
:10819000F0B587B004461646FFF74CFA054658BBC3
:1081A0000493194BCDE90116059394F836300396E4
:1081B0002BBB23689B6903F0020313B92046FFF72A
:1081C00081FB6A46E06A01A9FFF760FA054698B9A3
:1081D00094F8313083B900F0DAFEE36A06469B88F2
:1081E0009BB233B120460099FFF712FC012384F8BB
:1081F0003430304600F0D1FE284607B0F0BD022BE7
:10820000DCD123681B6CD6E7017000F00B4B30B556
:108210001B788BB1012000230546094951F8042B36
:1082200032B192F83C40022C04BF204682F83C5008
:108230000133042BF2D130BD0120FCE76C1E00207D
:108240005C1E00204FF04023D3F88420D206FBD4DC
:10825000D3F88400C0F381107047000038B5104B8C
:108260000546D3F820310C4603F00303022B0BD054
:10827000032B0DD0012B0FD1FEF716FE052305B100
:10828000286004B1237038BDFEF744FE0323F6E7EF
:10829000FEF758FE0223F2E700231846EFE700BF7F
:1082A0000080004073B50D4600210E4B0191D3F8BC
:1082B0008041064604F00304012C09D0022C0CD0A6
:1082C0000C460EB1019B336005B12C7002B070BD3D
:1082D00001A8FFF7C3FF0F24F3E7FEF733FE019079
:1082E000EFE700BF0080004038B5174B0546D3F8D4
:1082F00024310C4603F00703013B052B20D8DFE8AF
:1083000003F0030F171B0B13FEF7CEFD052305B17A
:10831000286004B1237038BDFEF7C6FD0623F6E7DA
:10832000FEF7F8FD0323F2E7FEF7F4FD0423EEE782
:10833000FEF708FE0223EAE7FEF702FE0723E6E760
:1083400000231846E3E700BF0080004038B5104B1B
:108350000546D3F840310C4603F00303022B0BD043
:10836000032B0DD0012B0FD1FEF7F0FD092305B132
:10837000286004B1237038BDFEF7EEFD0823F6E750
:10838000FEF7E7FD0B23F2E700231846EFE700BFF7
:108390000080004038B5134B0546D3F800320C4638
:1083A00003F00703013B032B18D8DFE803F0020AB0
:1083B0000E12FEF7CBFD092305B1286004B123702E
:1083C00038BDFEF7C9FD0823F6E7FEF7C2FD0B2313
:1083D000F2E7FEF789FD0E23800AEDE70023184639
:1083E000EAE700BF0080004038B5104B0546D3F8DF
:1083F00040320C4603F00303022B0BD0032B0DD0AD
:10840000012B0FD1FEF7A2FD092305B1286004B1AD
:10841000237038BDFEF7A0FD0823F6E7FEF799FDAF
:108420000B23F2E700231846EFE700BF008000406F
:1084300038B5104B0546D3F860310C4603F0030302
:10844000022B0BD0032B0DD0012B0FD1FEF77EFD9D
:10845000092305B1286004B1237038BDFEF77CFD07
:108460000823F6E7FEF775FD0B23F2E70023184615
:10847000EFE700BF0080004010B40D4C0B46D4F86D
:10848000204204F00304012C0AD0022C0CD008B1C5
:10849000002101600BB100221A705DF8044B704797
:1084A0005DF8044BFFF7DABE5DF8044BFFF74EBFF3
:1084B00000800040420910B510D0012A10D00B4BAB
:1084C0000B4C022A18BF234600F01F0051B103F5E0
:1084D0008053012202FA00F0186010BD1346F3E742
:1084E000044BF1E703F50053F3E700BF6880004059
:1084F0006082004064800040B0F5207F1FD009D822
:10850000B0F5007F15D003D868B1B0F5C07F0AD0B0
:1085100000200CE0B0F5607FFAD10B4BD3F880005F
:10852000C0F3011003E0084B186FC0F303300130B3
:108530007047054BD3F89000C0F30460F7E7024B97
:10854000186FC0F38020F2E7008000401FB50023C1
:1085500080280446029372D02BD8002873D0A0F153
:108560002004A3B2412B32D8412C30D8DFE804F0EC
:108570006B6E6B6E7D7D7D7D6E6E873C9E623C6E0C
:108580006E6E2F2F2F2F2F2F82546E6E6EA8A36E1C
:108590002F2F2F2F2F2F2F2F2F2F2F2F2F6B2F6B73
:1085A0006B6B7D2F2F2F2F2F2F2F2F2F2F2F2F2F15
:1085B0006B6BB0F5806F58D021D8B0F5007F4FD0ED
:1085C00008D8B0F5807F5FD0B0F5C07F3BD002986F
:1085D00004B010BDB0F5607F42D0F8D8B0F5207F70
:1085E00034D0B0F5407FF2D1FEF77EFC02464FF466
:1085F0002070FFF781FFB2FBF0F0400821E0B0F5FA
:10860000C06F53D00DD8B0F5A06F33D0B0F5B06FB8
:1086100035D0B0F5906FDAD1002102A8FFF764FEE3
:10862000D5E7B0F5E06F46D0B0F5F06F48D0B0F5C3
:10863000D06FCCD1002102A8FFF7ACFEC7E7FEF750
:1086400039FC0290C3E7FEF74FFCFAE7FEF74CFC5B
:1086500002464FF42070FFF74FFFB2FBF0F0F0E757
:10866000FEF728FC02462046F5E7002102A8FFF7A6
:10867000F5FDACE7002102A8FFF7FEFEA7E7002109
:1086800002A8FFF70FFEA2E703934FF0E0231B6958
:108690005B0705D5FEF728FC0390039B029396E742
:1086A0000DF1070103A8FFF751FEF6E7002102A82C
:1086B000FFF74CFE8BE7002102A8FFF795FE86E747
:1086C000002102A8FFF7B4FE81E7000008B5802072
:1086D000FFF73CFF034B98429EBF4FF48032024BA2
:1086E0001A6708BD005A620200A000404FF4003231
:1086F00038B50E4B05469A660020FFF7FDFE41F6A1
:1087000071320B4B6843DC690A4DDA639A68A84200
:1087100004F4803422F4401203D9012918BF42F432
:1087200080129A600CB10022DA6338BD00900040DC
:1087300000000340005A620208B5FEF7E7FBBDE8FF
:1087400008400021FFF7D2BF002307B5B0F5807FB6
:108750008DF802307FD02AD8382800F0A0800CD8BD
:10876000243883B2092B10D809280ED8DFE800F08E
:108770006D6D6D6D0D0D670D3987522865D009D867
:108780003D283ED03E2800F090809DF8020003B0C6
:108790005DF804FB8028F8D1474B1B6F03F00703FB
:1087A000013B032BF1D8DFE803F048444276B0F5F3
:1087B000D06F64D01BD8B0F5A06F70D00BD8B0F5D7
:1087C000806F42D0B0F5906FDFD100200DF1020133
:1087D000FFF78AFDD9E7B0F5B06F30D0B0F5C06FC4
:1087E000D3D100200DF10201FFF7B0FDCDE7B0F5C8
:1087F000006FEAD00BD8B0F5E06F56D0B0F5F06F4F
:10880000C3D100200DF10201FFF712FEBDE7B0F564
:10881000086FBAD1284BD3F8003103F00303022BC1
:1088200033D0032B35D0012B37D1FEF773FB032355
:1088300000E005238DF80230A7E70223FAE70020C5
:108840000DF10201FFF72EFD9FE700200DF102015F
:10885000FFF704FD99E701934FF0E0231B695B07E5
:1088600007D5FEF741FB0C238DF803309DF803304C
:10887000E0E70DF1030101A8FFF768FDF6E700202E
:108880000DF10201FFF786FD7FE7FEF765FB082388
:10889000D0E7FEF755FB0723CCE70123CAE700200A
:1088A0000DF10201FFF7E8FD6FE700200DF1020175
:1088B000FFF79AFD69E700BF0080004008B5FFF7A9
:1088C00043FF082812D00938C0B2012811D84FF44C
:1088D0000012094B4FF6FF705A6603F5D8335B6AF6
:1088E00013F0010F18BF4FF4FA7008BD034B18883E
:1088F000FBE74FF6FF70F8E7009000406C0C00209B
:1089000070B504468020FFF71FFF03287CD04FF48A
:108910000022424B42495A6645F60E030222C1F834
:108920008030404B9A62012203F580539A628A6D2F
:1089300012F48032FBD1637820781B0543EA006390
:10894000A079257C0343E078667C43EA00432079E4
:1089500043EA0033607943EA80130B618B69E07A64
:1089600003F000430343E07943EA8063207A43EA5B
:108970000063607A43EA0043A07A43EA00238B61F4
:10898000637B096A002B18BF0822207B21F00D01B0
:1089900043EA010343EA800342EA0302204B1A62DE
:1089A000A27B4FEA421230D1986AE17B20F033007B
:1089B00042EA0112024342F001029A621A4A996D98
:1089C00032EA0101FBD1022216498A621A659A6DC8
:1089D0005200FCD41869A27820F4700040EA0250DA
:1089E0004FF0004218610F4B9A611DB9022203F546
:1089F00080539A6216B901220C4B9A62A37C1BB178
:108A0000074B0B4AC3F8802070BD996A21F03301EF
:108A100031430A4342EA4502EFE700BF00900040BD
:108A200000C0004000D000400300014000E00040D2
:108A3000F1A7FFFF014B93F9000070476D1E002066
:108A4000F0B54FF480061B4A41788478C3780578E6
:108A500056664FF4D156022702F5B8325662164ECA
:108A60004F2977604FF0010728BF4F2106F5805648
:108A700077601669F603FCD441EA052151611B01B8
:108A8000417943EA04230B43017943EA41039360AC
:108A9000C37981791B0143EA4113417A0B43017A7F
:108AA00043EA41035360837A13B16FF4D1535362A5
:108AB000F0BD00BF0090004000100240014B188044
:108AC000704700BF6C0C00204FF4001208B5184B23
:108AD0005A660223174A5360936813F48033FBD11C
:108AE000012822D1FEF716FA134B984215D003F550
:108AF000122303F5F863984213D0104B00EB800269
:108B0000400AB3FBF0F0520A0A4BDA620122186302
:108B10005A620022074B5A6008BD45F67A10084A8F
:108B2000F2E745F61A00074AEEE75362F1E700BFA5
:108B3000009000400040024000F049026466666612
:108B4000D8B80500BBCF05000029CCBF012100210A
:108B5000FFF7CCBDB0F5207F10B50C4642D008D849
:108B6000B0F5007F33D003D888B1B0F5C07F0ED008
:108B700010BDB0F5607FFBD11F4B013CD3F88010D6
:108B800021F0300141EA0414C3F88040F0E7FFF718
:108B9000D3FD00F035F84FF48031184A164B1167B9
:108BA000196F013C21F4704141EA04341C67FEF75F
:108BB0009BF90446FFF746FBC0F102012046FFF790
:108BC000C3FF00F023F8BDE81040FFF77FBD0A4B5C
:108BD000013CD3F8901021F0F85141EA0464C3F845
:108BE0009040C5E7044B013C196F21F4806141EAD4
:108BF00084241C67BCE700BF008000400090004058
:108C000002214FF42070FFF7A5BF000008B54FF414
:108C1000C070FFF79BFCBDE80840044988428CBF48
:108C2000022101214FF42070FFF794BF80F0FA0277
:108C3000B0F5807F70B50C4600F0FE802AD8382849
:108C400000F0528111D8243883B2092B16D8092894
:108C500014D8DFE810F0E000E000E000E0001300CE
:108C60001300D100130048003801522800F0D380CF
:108C700005D83D2853D03E2800F0478170BD80289C
:108C8000FCD18B1E052B00F2B480DFE803F0AF9D12
:108C9000B26DB2ACB0F5D06F00F0158134D8B0F53C
:108CA000A06F00F0218117D8B0F5806F00F0B3807D
:108CB000B0F5906FE2D1023CE4B2052C8CBF0021EC
:108CC0009A4B9B4A98BF195DD2F8243123F00703D1
:108CD0000B43C2F82431D1E7B0F5B06F00F08C80BF
:108CE000B0F5C06FCAD1083CE4B2032C8CBF0021A0
:108CF000904B8F4A98BF195DD2F8403123F003039F
:108D00000B43C2F84031B9E7B0F5006FD3D017D8A4
:108D1000B0F5E06F00F0F980B0F5F06FAED1083C2F
:108D2000E4B2032C8CBF0021834B814A98BF195DAC
:108D3000D2F8603123F003030B43C2F860319DE7A2
:108D4000B0F5086F9AD1CC1EE4B2052C8CBF00217F
:108D50007A4B774A98BF195DD2F8003123F00303AC
:108D60000B43C2F8003189E70025022601210220C9
:108D700000F0F0F9FFF7E0FCFFF742FF4FF480311D
:108D80006F4B6B4A1967136F23F007033343136765
:108D9000FEF7AAF80646FFF755FAC0F10201304681
:108DA000FFF7D2FE0121002000F014FAFFF72EFF9A
:108DB000FFF78CFC002D7FF461AF032C7FF45EAFD6
:108DC0000122604B9A6259E74FF400225C4B032664
:108DD0005A66012203F540539D6A03F58053C5F39B
:108DE00040059A62C2E700250426BFE70025012658
:108DF000BCE700252E46B9E7022C03D0A4F10F00F2
:108E0000444244414A4AD2F8803123F003031C43D0
:108E1000C2F8804132E7023CE4B2032C8CBF00214F
:108E2000494B434A98BF195DD2F8203123F0030320
:108E30000B43C2F8203121E7A1F10804082C3FF6CA
:108E40001DAF01A353F824F06D8E00006D8E00005D
:108E50007D8C00006D8E00009B8E00007D8C0000DC
:108E60007D8C00007D8C00006D8E00004FF4803200
:108E70002F4B3649586E03F580535A660B6A43F000
:108E800001030B62C1035CBF314B5A664FF0E02215
:108E9000136923F004031361F0E64FF48032244B8E
:108EA0002A49586E03F580535A660B6A23F0010372
:108EB0000B62C3035CBF264B5A664FF0E022136976
:108EC00043F00403E7E7083CE4B2062C8CBF002122
:108ED000204B174A98BF195DD2F8003223F00703E0
:108EE0000B43C2F80032C9E60F2C0CD0102C14BF73
:108EF000002102210E4AD2F8203223F003030B4353
:108F0000C2F82032BAE60121F4E7083CE4B2032CAF
:108F10008CBF0021104B064A98BF195DD2F8403231
:108F200023F003030B43C2F84032A7E6E4800300BA
:108F300000800040E0800300E0800300F180030037
:108F40000090004000E00040DC80030000C00740CB
:108F500000A00040EA800300E08003000028ABBFCF
:108F600000F16040054B00F5614000F00F00ACBF20
:108F700090F80003185C0009704700BF14ED00E092
:108F8000EFF3108072B6704700B962B67047EFF326
:108F90001180302383F31188704780F31188704764
:108FA000054B420953F8223000F01F0023FA00F06D
:108FB000C04300F00100704700E100E0014608B541
:108FC000EFF31083DB0702D50122104608BDFFF73F
:108FD000E7FF02460028F7D10846FFF7BFFF01462A
:108FE000EFF3118313B1B0EB131FEDD2074B5B68A6
:108FF000C3F30803002BE8D0103B58B2FFF7AEFFD5
:1090000088428CBF00220122DFE700BF00ED00E0B4
:10901000194B10B51B6873B3184A5268012A2AD03D
:10902000174A8020C2F80031FFF78EFB05281FD1B8
:109030004FF4C070FFF760FA0128044604D1022102
:109040004FF4C070FFF786FD07220E4B1A61012214
:10905000A3F580535A60094A1369DB07FCD5012C3C
:1090600009D12146BDE810404FF4C070FFF772BD32
:109070000122054B5A6010BD701E002000C0014047
:109080000080004000E0014000D0014000224FF489
:109090000031074B1A60074A516602F59832526850
:1090A000012A02BF044AD2F800211A60704700BFAB
:1090B000701E002000900040008000407047704704
:1090C0007047000010B5044608B1FFF7DFFF0E4AF5
:1090D000136943F00403136101F0C8FCFFF7EFFFCD
:1090E000FFF74EFF2EF0A4FEFFF74EFFFFF7E8FF5D
:1090F00001F0D0FC1CB1BDE81040FFF789BFBDE80E
:109100001040FDF7F1BE00BF00ED00E010B50446D1
:1091100008B1FFF7BBFF0C4A136943F00403136166
:1091200001F0A4FCFFF72CFF2EF082FEFFF72CFFCE
:1091300001F0B0FC1CB1BDE81040FFF769BFBDE80D
:109140001040FDF7D1BE00BF00ED00E0FFF79EBF6D
:10915000FFF75EBFF8B504464FF04023D3F88420F4
:10916000D106FBD4D3F88430C3F381139C422DD0B5
:10917000FDF7A0FE012C064602D12146FFF7E4FCD4
:10918000FFF7FEFE4FF00072114B07465A6620466D
:10919000FFF794FF4FF480634FF04025621E934029
:1091A0002B676B6E9A0103D4D5F884309B060AD5E1
:1091B0003846FFF7E9FE022C08D13046BDE8F840FA
:1091C0000021FFF7C1BCD5F88430EAE7F8BD00BF45
:1091D0000060004007B518B90191FDF76BFE0199D9
:1091E000064B1B7843B1064B984205D8012003B0CB
:1091F0005DF804EBFFF7AEBF0220F8E7741E002015
:10920000005A62020278034B012100201A70FFF716
:10921000E1BF00BF741E00204FF04022536F417821
:1092200023F4407343EA0123536770474FF0402211
:10923000D36E017923F030030B43D36670470000EF
:109240004FF0004210B501244AF6CD31144B5A6656
:10925000144A03F50B2354605A6C1964224078B900
:10926000996811F0010F104903D08C60D86AC007CB
:10927000FCD501234B6012B10C4B0D4A1A6410BD92
:10928000D96A0907FCD42021074B59620121A3F5B3
:109290008053996005494B6A9B06FCD5EBE700BFFC
:1092A0000090004000500940006009400040094023
:1092B0003254FFFF4FF0004238B5184B184C5A6635
:1092C000012203F50C235A604AF6CD33656C236402
:1092D00043781540934013434FF04022D363A36873
:1092E000827823F0740343EA0213C278002A14BF81
:1092F000042200221343A3600279837943EA022304
:1093000023614279C37943EA022363610078FFF75E
:1093100097FF0DB1034B2364012038BD009000403E
:10932000004009403254FFFFC36C0B42FCD1704730
:1093300008B543680246DB0714D50A2350210363AE
:10934000FFF7F2FF136C9907FCD1936A01211046D5
:109350009362FFF7E9FF136C1B0604D4012302F5A7
:109360000052536008BD536BF5E738B50C46012138
:10937000024600F58053596004F00F0540F2FF717A
:10938000FFF7D2FF78210563FFF7CEFF04F001035A
:10939000610748BF43F00203116C01F003019942D9
:1093A000FAD138BD09B9FFF7C3BFFFF7DEBF036CC1
:1093B0005B06FCD5C16370472DE9F04104461F48A8
:1093C0001F4F84420CBF38200020FFF7BFF8A36A6C
:1093D000A4681F4004F0E004402C0DD004D834B33E
:1093E000202C27D0002020E0602C25D0802CF9D123
:1093F0004FF4807600241BE080260024032307F529
:1094000080775F4300233A4619462EF001FA02FBAB
:1094100004F500FB06F806FB0355A2FB060100233A
:109420003A4629442EF0F4F94044BDE8F081102674
:109430000123E4E72646DDE74026DBE70000034A98
:10944000F8FF7F0070B5054614460E46FFF798FDFD
:10945000296881EA040202EA06044C402C60BDE857
:109460007040FFF791BD0000072AF7B501F0030631
:1094700014461F464FF003012CD89500A94000FA6E
:1094800005F21C480191FFF7DDFF01991A4806FA21
:1094900005F2FFF7D7FF194B19499DF82000002F5F
:1094A00008BF1946012303FA04F40C60154B164952
:1094B000002808BF0B461C60144B9DF82400C3F81D
:1094C00020441031A3F6DC33002808BF0B461C6093
:1094D00003B0F0BDA2F10805AD00A94000FA05F205
:1094E0000B480191FFF7AEFF01990A4806FA05F211
:1094F000CFE700BF00C4034008C4034010E40340AA
:1095000010D4034014D4034014E4034000E00340AB
:1095100004C403400CC40340F0B54AB10125302611
:109520001C4C8D4006FB00440BB341F21006A551C4
:1095300030244443072904F1804404F5703419D8D9
:109540000F2765688E00B74025EA070502FA06F680
:109550003543656052B90122302402FA01F10D4A07
:1095600004FB00209BB141F21003C150F0BD42F258
:109570001006DCE70F27A1F10805E668AD00AF4053
:1095800026EA070602FA05F53543E560E2E742F20E
:109590001003EAE700C00340044A054B002918BF46
:1095A0001346012202FA00F0186070474020044080
:1095B0004010044010B5012104462020FEF77AFF38
:1095C00001212120FEF776FF0122114B5A602278FB
:1095D00012069A606178A27842EA01429A61FF22FB
:1095E0009A6200229A631A644FF000425A654FF063
:1095F000FF324FF4001103F500531A65054AC2F813
:109600008011E3781B01DBB282F81533116010BDC5
:109610000000044000E100E02DE9F04101250C4686
:109620004FF0300EC3B29D40CB7A1E4E4FEA035826
:1096300023688F7A94F80DC0097B46F82030A6F590
:1096400080460EFB006048EA074343EA4153C0F8F6
:1096500060C0C365144B22F0030202671D65FFF76B
:1096600096FC736D2B437365237A13B1336C2B43D4
:109670003364637A13B1B36B2B43B3632279A37959
:1096800043EA0243084A93616179E37943EA01437B
:1096900006498B61064B55639D64BDE8F041FFF7B9
:1096A0007CBC00BF00400440002004400010044087
:1096B0000000044010B50124C0B28440FFF767FCED
:1096C000044B5A6D22EA04025A659C62BDE81040C0
:1096D000FFF763BC00000440F8B50125C3B204469F
:1096E0009D40FFF754FC3022094B1E6D5F6B02FB5F
:1096F00004335C6EFFF751FC3D4206D1C4F30A10FF
:1097000008B9354200D10130F8BD0020FCE700BFA8
:10971000000004404FF40032054B9A6641F6713266
:1097200003F51C33DA63012203F50053DA60704756
:109730000090004041F671320121064BDA6303F5D7
:109740000052D1600022DA634FF40032A3F51833DF
:109750009A667047000003404FF090435A6812B178
:109760009A6A002AFAD17047CB784A7810B55B0123
:109770000C7843EA82030A79234343EA02130C225A
:10978000424302F190421363012C02BF8A78024BDC
:1097900043F8202010BD00BFE880034008B54FF01B
:1097A00090435A6802B960B15B680BB1FFF7D4FF10
:1097B0004FF0904130B10120074B5860FFF7CCFFCC
:1097C000C86008BDFFF7C8FF0223CB60FFF7C4FFE6
:1097D0000122024B5A60F4E70010004800200048C4
:1097E0004FF090435B6870B50BB1FFF7B5FF0121F7
:1097F000104B4578596083780679002BC37814BFE5
:1098000002240024002B14BF042200224379DB0031
:1098100043EA06132B43234313434FF090429360D4
:10982000054B59600378002B14BF0B460223D3600D
:1098300070BD00BF00200048001000484FF4803287
:10984000064B5A6603F5E6235B69C3F38512827003
:1098500003F03F021B0B4270037070470090004002
:1098600070B5054616461C4621B94FF42070FEF728
:109870006DFE0146402C1BD003D8DCB1202C1BD040
:1098800070BD602CFCD1042303FB06F2560806EBE6
:109890004113B3FBF2F3094A203B02EAC303AA686F
:1098A00022F06002AA60AA681443AC60EB61E7E7AB
:1098B0000623E9E71023E7E70823E5E7F8FF7F0041
:1098C0002DE9B841154F15460F40FAB9202B20D08D
:1098D000402B20D0002B14BF40241024012307F577
:1098E00080775F4300233A4619462DF091FF554398
:1098F00000FB04F804FB0351A2FB040400233A46D6
:1099000021442DF085FF4044BDE8B8818024002526
:10991000E4E71C46E2E780240323E0E7F8FF7F004A
:1099200070B5044685684FF42070FEF70FFEA368FB
:1099300005F00102E16903F06003BDE87040FFF744
:10994000BFBF38B50546144621B94FF42070FEF765
:10995000FDFD014601396400B1FBF4F10902E96142
:1099600038BD012200F580535A60CB43934003F089
:109970000A034361416111B900F50050426070472C
:10998000012200F5805310B55A6040F6AA6341F2F7
:109990000502436100230E498360C365C26000F580
:1099A00000520361C361C36491640A4983658842BC
:1099B00002D0094CA04207D18842036502D0064B71
:1099C000984201D1002343650123536010BD00BFBD
:1099D000FFFF010000C005400000064070B50D46C5
:1099E000FFF7CEFF012300F580567360AB7C044681
:1099F0001BB1836843F080438360EB7C5BB1324AE8
:109A00002B7D94423FD1A2F51032C2F88C31E36D28
:109A100043F08003E3652A8A6B7B20461343EA897F
:109A20001343E3602B7BD5E90112FFF719FF6B7D30
:109A30001BB1A36843F48033A360AB7DEA7D1B07B1
:109A4000120502F4E00203F0E0431343A365297E0C
:109A50001D4A8B1E012B1D4B1FD894421BD002F5B3
:109A6000804294420CBF01224FF0FF3203EB4213BD
:109A7000022041F21C620329985020D10423F3658F
:109A80002B78636170BD124A944204BFA2F5203264
:109A9000C2F89C31BBE70022E8E794420DD00C4AA3
:109AA00094420CBF01224FF0FF3203EB421302201D
:109AB00042F21C6201299850DFE70022F5E70422F8
:109AC00004F50053DA65DBE700C0054000C0034041
:109AD0000000064038B50D46FFF752FF0122A97B72
:109AE00000F580535A602A8A8368002914BF4FF416
:109AF0008061002142F0010213432A7D0B43002ABA
:109B000014BF4FF000520022836083680446134361
:109B10008360AB7C5BB11A4AEB7C904227D1A2F503
:109B20001032C2F88C31E36D43F08003E3652B7B88
:109B30002046D5E9011243F48053E360FFF701FFAB
:109B40006B7B0BB1102363616B7D1BB1A36843F486
:109B50008033A360AB7DEA7D1B07120503F0E04371
:109B600002F4E0021343A3652B78636138BD054A14
:109B7000904204BFA2F52032C2F89C31D3E700BF67
:109B800000C005400000064083695A06FCD5C16349
:109B900083699B06FCD5406AC0B2704783695B0647
:109BA000FCD5C1637047000038B50446054D27F069
:109BB00022F90FCC0FC594E8030085E803000020CC
:109BC00038BD00BF781E002047F6FF739A42F0B5FB
:109BD0005ED002295ED8304ECF0016F8313006EB49
:109BE000C100012B85780DD1C3785B1B23B141687F
:109BF00031F91310914202DCE818C0B2F0BD013B0C
:109C00001BB2F3E740680028F8D0B0F90030934267
:109C100004DBB0F902309342B8BF134682883E4459
:109C2000FF2A19BFC8242821B0F90640B0F908104E
:109C3000A4EB03040CBF0122002294FBF1F476781C
:109C4000224414B2721EA242A8BF22464FF47A7771
:109C500000EBC204E188A468013213FB014112B297
:109C600021EAE17101F5FA71B242B1FBF7F104DAD0
:109C700000EBC204A4888C42EAD200EBC20232F8A4
:109C8000040C884228BF0846A84238BF2846B4E7DB
:109C9000FF20B3E70020B1E7781E00200229F0B5CD
:109CA00054D82B4800EBC10310F831105C6801292F
:109CB0000FD19878D978914294BFC0EB0103C0EBE3
:109CC0000203091ADBB28B42C8BF002334F9130028
:109CD000F0BD002C3AD09978914202D3B4F9020039
:109CE000F6E7D978B4F900009142F1D9A1885B7800
:109CF000FF294FF0000114BF03F1FF33023BDBB239
:109D0000251D04F10C071FFA82FCCEB2B34216D80F
:109D100005EBC1014FF47A756A43B1F90230496825
:109D2000521A03EBD37102EB610292FBF3F2904201
:109D3000CEDBB4F902009042CADC10B2C8E737F8B3
:109D400031E04E1CE645E3D33146DEE70148BFE78C
:109D5000781E00200080FFFF08B50448FFF724FFAD
:109D6000BDE80840012027F048B800BFF880030094
:109D70004FF0FF30014927F0BFBB00BF700C00203F
:109D800007B56B46054A1068516803C36846FFF77C
:109D900091FA002003B05DF804FB00BF7C81030052
:109DA0004FF0402213B50024536F684643F001037F
:109DB000536700948DF80440FFF738FA204602B04C
:109DC00010BD000070B586B001AA1546184B03F10E
:109DD0001006144618685968083303C4B342224673
:109DE000F7D119889B782180A370124BD3F84C21AE
:109DF000120314D4D3F85041E4B28DF80E40FEF7AC
:109E000019FE204480F308008DF80D000A48FDF784
:109E100087F82846FEF774FD002006B070BD074B9A
:109E20001C884FF6FF739C4208BF7824E5E700BF0B
:109E3000848103000080E00F00F049020001E00F80
:109E400008B50120FEF740FE002008BD1FB50B4AF3
:109E500001AB1068516803C31189927A19809A7016
:109E6000252301A88DF80530FEF7EAFD6420FEF7F2
:109E700025FE002005B05DF804FB00BF97810300BC
:109E80006FF00402502110B50A480B4C12F0800FFD
:109E9000D3B21BBF03F00F03043BA3181B1802F13E
:109EA00001020CBF83F800131976402AEED100207E
:109EB00010BD00BF00ED00E000E100E000F07AB866
:109EC00038B500F045FF0446E0B901F065F84FF4FD
:109ED000167343430C4803F5742303F23F23B3FB8B
:109EE000F0F30A4A0A4913600A220D680948013A48
:109EF00012F0FF0240F8043BF9D103EBC3022B44FC
:109F000013440B60204638BD40420F00CC1E002099
:109F1000981E00209C1E002070470000012208B5FA
:109F2000034B1A7001F02CF8024B186008BD00BFFB
:109F3000941E0020C81E0020F8B5144C237823B3CB
:109F400001F01EF8124B134D1B68134EC01A012866
:109F500038BF0120114B124F18602B7856F8232080
:109F600046F82300111A3A680E48521A0A213A603C
:109F70000932B2FBF1F20133DBB20260B3FBF1F262
:109F800001FB12332B7000232370F8BD941E0020B8
:109F9000C81E0020C41E00209C1E0020901E002011
:109FA000981E0020CC1E0020014B1868704700BF8F
:109FB000CC1E002020234FF400220A4981F82C33C4
:109FC000094B5A66094A03F5A040426702674FF4FD
:109FD000805003F540530344C1F8840148605A6738
:109FE000704700BF00E100E000900040010000A0C9
:109FF000054B064A1B78916DC90700D513B100289F
:10A00000F9D1704701207047E41E002000C00040D5
:10A010002DE9F843874B1E6F9D6A9C6AF00705F097
:10A02000020504F001044CD501278349834A91F8C5
:10A030000090DFF828821767B9F1000F00F0ED807B
:10A040000020087098F80010B94200F2E180022167
:10A050009762A2F5805291629A6DD103FCD478493F
:10A060005A6B096822F470620A435A637548764A4B
:10A0700099690068126821F47F01024321F47F414D
:10A080000A439A617148724A19691268006821F49A
:10A090007F6121F00F0102430A431A616D499A69F9
:10A0A000096822F0FF020A439A610223002D40F062
:10A0B000AB80624A93620123002C00F0A780664ABD
:10A0C000936216F000527FD04FF0010E5B4F634950
:10A0D0003A67594A574B82F800E00A78DFF864C1C2
:10A0E00072440A705A6B564902F4706008609869AD
:10A0F000554900F47F4008609969DFF8588101F400
:10A100007F01CCF80010D3F818C05FFA8CFCC8F8B7
:10A1100000C0D3F810C0DFF838810CF47C6CC8F8AC
:10A1200000C0D3F810C0DFF824810CF03F0CC8F851
:10A1300000C0C7F828E04FF0020EDFF81CC1CCF8D1
:10A1400028E04FF0004ECCF828E0D3F858C01CF4BB
:10A15000803FFAD14FF0004C22F4706242F400725A
:10A16000B0F5C84FC7F828C05A6302D8B1F5C80F78
:10A170000CD9304A3A499369096823F47F0323F4E0
:10A180007F4343EA012343EA01439361294A354966
:10A190001369096823F47F6323F00F03880843EAF7
:10A1A000910343EA80131361936923F0FF030B4388
:10A1B00093610223002D37D102F5005293620123EF
:10A1C000002C33D0244A9362002E1BDA4FF0004259
:10A1D0001A4B18491A67244A12789AB101229A62D6
:10A1E0000222A3F580539A628A6DD203FCD44FF009
:10A1F00000429A61022205B9104B9A620123BCB158
:10A20000154A9362BDE8F883134A53E70B4A57E7B0
:10A21000FFF782FE144B1F7053E7FFF78DFE00F02F
:10A220005BFB88F800904CE70B4AC7E7034ACAE794
:10A23000024AE6E700C00040E41E002000E00040C3
:10A24000E81E0020E01E0020DC1E0020D81E00209A
:10A25000D41E0020D01E002000D00040E51E0020AB
:10A26000840C0020800C0020E61E0020FFF7D0BEEA
:10A27000BFF34F8FBFF36F8F054B5A6A22F48032C2
:10A280005A62D3F8942022F00102C3F89420704758
:10A2900000ED00E070B52548254CFFF7E9FF84424A
:10A2A00008BF4FF08043234A18BF20F01F03D2F8A5
:10A2B000C01018BF203B21F0FF0141F0A001B3F115
:10A2C000005FC2F8C0100CD31B4D1C4E296843F030
:10A2D0000103C2F898100131C2F89C60C2F8A030A6
:10A2E0002960844210D01448154B0268114923F0AC
:10A2F0001F0343F00303C1F89820C1F89C30114BB1
:10A300000132C1F8A0300260BFF34F8FBFF36F8FEF
:10A310000522084BC3F894205A6A42F480325A62EC
:10A32000BFF34F8FBFF36F8F70BD00BF440E00208F
:10A330001C10002000ED00E0EC1E002003000020B7
:10A340003B100020E1FFFF3F10B51446FFF790FFE0
:10A350001F2C21D9194A1A4CD2F8C03021F01F0104
:10A3600023F47F4343F48073C2F8C030C30618BFA0
:10A3700020F01F002368114A18BF203020F01F0072
:10A38000C2F8983040F0030041F003010133C2F8F5
:10A390009C00C2F8A0102360BFF34F8FBFF36F8FF4
:10A3A0000522064BC3F894205A6A42F480325A625E
:10A3B000BFF34F8FBFF36F8F002010BD00ED00E0A3
:10A3C000EC1E0020BFF34F8F0549064BCA6802F40C
:10A3D000E0621343CB60BFF34F8F00BFFDE700BFC8
:10A3E00000ED00E00400FA0508B5FFF7EBFF08BD3B
:10A3F000034B1B78002B14BF01200220704700BFC5
:10A400001C1F00200329F8B598BF124B05460E46C5
:10A410008CBF00245C5C032805D8DFE800F002084C
:10A420000B0E44F002040C4B1F684FB9F8BD44F00A
:10A430000804F8E744F02004F5E744F08004F2E76C
:10A440007B681A68144203D0314628465B689847F7
:10A450003F68EAE7A2810300181F002038B5104DBD
:10A460002B78ABB10F4C23781BB100F03FFB0023DE
:10A470002370002000F05CFB0B4C50B100F062FB3D
:10A480000023012120782B70FFF7BCFF01232370EC
:10A4900038BD0122054B1A702278054B1A70F7E778
:10A4A000151F0020111F0020081F0020141F00206E
:10A4B000281F002010B5FEF763FD064B04461B78ED
:10A4C0001BB1BDE81040FEF75FBDFFF7C7FF204698
:10A4D000F7E700BF101F0020002814BF0121FF2153
:10A4E000074A13780B44137008D0064B1B78012BD6
:10A4F00004D9054B1B780BB9FFF7B0BF704700BFFD
:10A500001C1F0020081F0020141F002070B5FEF73C
:10A5100037FD114E054633788BB900F019FC04461F
:10A5200020B12846FEF730FD204670BD00F034FD16
:10A530000A4B18600A48FCF72BFD0A4B1C6000F020
:10A5400017FA00F033FB084B00241860012328465B
:10A550003370FEF719FDE7E7121F0020241F0020CB
:10A56000181F00202C1F00200C1F002000292DE99F
:10A57000F34114BF0121FF21214A0138135C214E10
:10A580000B4413543278012A36D9FFF731FF824247
:10A59000044631D91C4FFEF7F3FC3B781BB31B4D2F
:10A5A0002B781BB901222A70194A1370DFF86480D6
:10A5B00098F8003033B1019000F098FA0023019828
:10A5C00088F80030FEF7E0FC012000F0B1FAFEF759
:10A5D000D7FC2B782BB1019000F0B4FA002301983E
:10A5E0002B7000233B70FEF7CFFC3078A04203D0E5
:10A5F0002146FFF707FF347002B0BDE8F08100BFCD
:10A600001C1F0020081F0020151F0020101F002005
:10A61000141F0020111F002010B50446FEF7B0FCE7
:10A62000002C14BF0121FF21064A13780B44DBB232
:10A630001370B3FA83F3BDE81040034A5B0913704B
:10A64000FEF7A2BC1F1F00201E1F002068B5FEF7EA
:10A6500097FC094B06461B78012B04D8FEF794FCA7
:10A660000025284668BD054B1D6800F0A3FA054487
:10A670003046FEF789FCF4E7081F00202C1F00205D
:10A6800007B5FEF77DFC0190FFF7E8FE019803B0E7
:10A690005DF804EBFEF778BC38B541600446FEF780
:10A6A0006FFC054621460448FCF775FC2846BDE8CA
:10A6B0003840FEF769BC00BF181F0020054B1B681F
:10A6C0005843054B00F5742000F23F20B0FBF3F037
:10A6D000704700BF241F002040420F002DE9FF47B4
:10A6E000FEF74EFC0446FBF774FE002800F08E8057
:10A6F000654E664F337823B10020FFF7EDFE00234F
:10A700003370FFF775FE0546002800F08580851E32
:10A71000EDB2012D40F28880FFF76AFE01288046E5
:10A7200004D95B4B1B780BB900F09EF9594DDFF84B
:10A7300080912878DFF87CA140450AD0002389F871
:10A7400000309AF8003013B94146FFF75BFE85F8F8
:10A75000008099F800303BB12B78022B04D1002304
:10A7600089F8003027F078F8B8F1010F0FD9DFF839
:10A77000208198F8003053B9474B1B7823B900F07B
:10A78000AFF90122454B1A70012388F80030287870
:10A7900000F0F6F99AF8003013B1414B1B782B709A
:10A7A00000E000BF2046FEF7EFFBFEF7E9FB0446A2
:10A7B000384600F007FBFBF721FE8046002899D1C0
:10A7C000334F89F800003B789BB1DFF8D0908AF8CE
:10A7D000000099F800301BB100F088F989F800807A
:10A7E000002000F0A5F9002844D000F0ABF90023C8
:10A7F0003B70337823B10020FFF76EFE00233370E7
:10A8000000212878FFF7FEFD00232B70204604B0BE
:10A81000BDE8F047FEF7B8BB3378002B3FF47CAFC0
:10A82000FFF75AFE357077E7002003A900F070FBB0
:10A83000054600287FF470AF1A4B039A1B689A42B2
:10A8400005D80120FFF748FE0123337064E7164B5B
:10A85000D3F8008000F0AEF9039940448842F0D26A
:10A860000223091ACDE9005338462B460F4A00F05F
:10A87000D1FA51E7012000F083F92046FEF784FB6E
:10A88000FEF77EFB0446ABE7201F0020F01E0020F1
:10A89000151F0020081F00201F1F0020111F00206F
:10A8A000281F00200C1F00202C1F0020B5A4000032
:10A8B0001E1F0020141F002010B5FEF761FB0022B0
:10A8C000044B1C781A70FEF75FFB00F037FC204346
:10A8D000C0B210BD131F002038B50B4D2B788BB1C3
:10A8E0000A4C237873B100F02DF9094B0121187837
:10A8F000FFF788FD00220123064922700A70064AEC
:10A900002B70137038BD00BF081F0020141F0020DB
:10A91000281F0020151F0020131F00207047000073
:10A9200073B5114E04463378834212D000238DF85C
:10A93000043080B102238DF8053001A8FEF76CFCCD
:10A940000A4D402054B1FFF7B9FE2B68181A286051
:10A95000347002B070BD8DF80500EEE7FFF7AEFE73
:10A960002B681844F3E700BF880C0020381F002034
:10A9700073B5002401A88DF80440FEF743FC20467F
:10A980004FF40024FFF7CCFF3149324B0A6F02F03D
:10A9900007021A60D1F82031D1F8240101F5805165
:10A9A0004C664FF400344C6601F598318969032AEE
:10A9B00000F0070001F0020141D003F003039C1EE8
:10A9C00063426341022808BF43F001032248234D3C
:10A9D000037061B31E4A3BB9D2F8003103F00303A0
:10A9E000591E4B424B410370D2F8003103F0030370
:10A9F000022B26D0032B27D0012B18D1FCF78AFA83
:10AA0000A8B1174B411EDC680023024608461946D0
:10AA1000C4F30B04134E013404EB8404E4FB06017D
:10AA20002CF0F6FEFFF74AFE2B68184428606420DD
:10AA3000FFF744FE2B681844286002B070BD012364
:10AA4000C0E7FCF789FADBE7FCF77AFAD8E700BF42
:10AA500000800040301F0020361F0020381F0020DB
:10AA600000C0014040420F00FEF770BB074B1A7850
:10AA700052B100221A70064A136F23F0070343F005
:10AA800001031367FCF730BA704700BF341F002082
:10AA9000008000400E4B10B51B7883B1022000F0FF
:10AAA000F3FB60B100F066FA48B10A4B9A6DD2032D
:10AAB00006D5DB6D9B0703D50122074B9A6210BDBB
:10AAC0000124064B1C70FFF729FA034B9C62F6E742
:10AAD000361F002000C0004000D00040351F00207D
:10AAE0000122014B1A707047341F002038B50C4BFF
:10AAF0001B786BB10B4C23787BB90B4B0B4D9A6DCC
:10AB000012F4803F05D0DB6D9B0702D50123AB62B9
:10AB100038BDFFF703FA0123AB6200232370F7E788
:10AB2000361F0020351F002000C0004000D000402C
:10AB3000034B1B780BB1FFF75BBA0120704700BFD6
:10AB4000361F002008B5FEF703FB094A0949136FB9
:10AB5000096823F007030B431367074B1B7813B1F6
:10AB60000122064B9A62BDE80840FCF7BDB900BF60
:10AB700000800040301F0020361F002000E0004011
:10AB800002280AD003280BD001280CD1064A1369E9
:10AB900023F00403136130BF70470020FEF792BA20
:10ABA0000020FEF7B3BA704700ED00E04FF4C87024
:10ABB000FFF784BD08B5054B187818B1FFF7F4F915
:10ABC00000EBD000024B1B68184408BD361F002064
:10ABD000381F00200122014B1A707047361F0020D9
:10ABE00038B500F0F9FA094B094A196839B1136808
:10ABF0004C69C51AAC4204D323441B1A4B61106044
:10AC000003E00023001B10604B6138BD541F00207F
:10AC1000401F0020C38870B504460D463BB9FFF7BE
:10AC200015FD8542064602D2FFF72AFD35460F493B
:10AC300065610B68ABB90C60A36011E0AD1A9A684E
:10AC4000184665612AB113465A69AA42F6D950B12D
:10AC50001A4613468460A36013B15969491B5961B0
:10AC600070BD0020F0E70C60F5E700BF541F002026
:10AC700038B50F4B0F4D1C682B6802205B691C44D4
:10AC800000F0DEFA204600F0AFFA00230A492A68F5
:10AC90000B70D088800702D501230B7038BD9268F5
:10ACA000002AFBD050690344012BF2D9F6E700BF1C
:10ACB000401F0020541F0020481F002070B59DF841
:10ACC0001450164605710025049A8560BDF8185089
:10ACD0000446C580C0E903360D46026029B94161CA
:10ACE0000BB11146984796B13546FEF750F9064626
:10ACF000FFF776FF29462046FFF78CFF054B1B68C0
:10AD0000A34201D1FFF7B4FF3046FEF746F9002019
:10AD100070BD00BF541F002000220C490B687BB19E
:10AD200083420AD183687AB1936083681BB15A6900
:10AD300041690A445A61002070471A469B68EEE751
:10AD40000028EFD0022070470B60EEE7541F002070
:10AD500070B5FEF71CF9144E05463478FCB9134B58
:10AD60001C60134B1C60134B1C8000F0F3F9012096
:10AD700000F066FA00F0B2FA0F4B0246186020B9F4
:10AD80002846FEF70AF9232070BD234640F2E7313A
:10AD90000A482CF03DFD0A4B186001233370284609
:10ADA000FEF7FBF80020EFE73C1F0020541F0020B7
:10ADB000401F00204A1F0020501F002018FCFFFFEA
:10ADC000441F00202DE9F0410546F8B1FEF7DFF8F9
:10ADD0000F4F0646FFF704FF2846D7F80080FFF71D
:10ADE0009BFF044628B13046FEF7D7F82046BDE861
:10ADF000F081A8453B6803D123B1FFF739FFF2E7A3
:10AE0000002BF0D1022000F027FAECE72224EDE736
:10AE1000541F002070B586B015461E4604460591A5
:10AE200080B1FFF7CFFFBDF82C30002202939DF8D0
:10AE300028302046CDE9006305992B46FFF73EFFF9
:10AE400006B070BD2220FBE738B50C46054698B128
:10AE500091B100230B70FEF79AF80121074B1B6894
:10AE60000BB122781AB1FEF798F8002038BDAB423A
:10AE700014BF9B682170F3E72220F7E7541F0020DE
:10AE8000F0B51F46002387B00D46164604468DF8E0
:10AE90001730A0B10DF11701FFF7D6FF9DF817206D
:10AEA0007AB9BDF83430294602939DF830302046F7
:10AEB000CDE900733346FFF701FF07B0F0BD222054
:10AEC000FBE70320F9E7F0B51F46002387B00D46E6
:10AED000164604468DF81730A8B10DF11701FFF79B
:10AEE000B3FF9DF8173083B9BDF834302A4602937A
:10AEF0009DF830302946CDE9007320463346FFF7F0
:10AF0000DDFE07B0F0BD2220FBE70220F9E70000DC
:10AF10002DE9F04107468846FEF739F80026054638
:10AF2000124B1C6824B92846FEF737F81B2016E0A0
:10AF300063691E44E388BB4215D100F04DF90C4C07
:10AF40002368C01AB0420CD200F046F9226832449D
:10AF5000121A2846C8F80020FEF71FF80020BDE8A6
:10AF6000F0810022F5E7A468DCE700BF541F002051
:10AF7000401F0020014B1878704700BF481F002079
:10AF800038B5FEF704F8054600F026F904462846D1
:10AF9000FEF703F8204638BD014B1868704700BF24
:10AFA000501F00200A4B10B51B680C4683420CD37F
:10AFB000084B4FF47A7219680023A0FB01012CF0B2
:10AFC00027FC01302060002010BD2120FCE700BFDD
:10AFD000441F0020501F00200F4B10B51A689AB173
:10AFE0004FF47A71531E1342A0FB01010ED1B2FA45
:10AFF00082F2C2F11F04531CD243E04001FA03F372
:10B00000184321FA02F20243104610BD00232CF02F
:10B01000FFFB0246F8E700BF501F0020C2072DE9E2
:10B02000F84F04460BD5414A138801339BB2138075
:10B03000FFF7D6FD3E4B1B680BB1FFF719FEA307C8
:10B0400071D500F0C9F8DFF8F0904FF00008D9F89A
:10B0500000700646C71BFDF79AFFC34605464246E9
:10B06000334B1C6814B16369BB4219D90021314BC1
:10B07000B8F1010F197005D122B1D288022A08BF98
:10B0800083F80080002C4AD06369C9F80060DB1B9C
:10B090006361FFF7EDFD2846BDE8F84FFDF77DBF82
:10B0A00023463A46C9F800605969914209D818798F
:10B0B00094F804C0521A844588BF1C469B68002B34
:10B0C000F2D12846FDF769FF6569C4F814B0FDF7B1
:10B0D0005EFF82462046FFF71FFE5046FDF75DFFEC
:10B0E00023694BB1FDF753FF824621692046FFF7E4
:10B0F00091FD5046FDF751FFE36813B120462168EA
:10B10000984700F069F835447F1B82460744FDF7F5
:10B110003EFF56460546224608F10108A0E70220F8
:10B1200000F09AF8B7E7BDE8F88F00BF4A1F00208B
:10B13000541F00204C1F0020401F002010B5FDF7B9
:10B1400026FF034B1C78FDF728FF204610BD00BFEB
:10B150004C1F00201FB500241C4B012118689A8841
:10B160000290D3F806009B7A00903E20ADF80C20A8
:10B170008DF80430FDF79EF902A88DF808408DF88F
:10B180000C40FEF72DFB694601208DF80040FEF7CC
:10B19000EBFA4FF0904240F2FF31936923F47F7352
:10B1A00023F0030393610A4B5961936A13F0080378
:10B1B000FBD113620120FEF7F1FA4FF48052054BE8
:10B1C000C3F880211A6004B010BD00BFA68103003F
:10B1D0000020004800E100E04FF090439A6A120717
:10B1E000FCD4186A704700004FF09042936A190728
:10B1F000FCD4136A116C5269520604D4CA1A032A89
:10B2000001D899420ED1C21A022A98BFD81CB0F1B7
:10B21000FF3F38BF01384FF0904318649A6942F0FD
:10B2200040029A61054A13783BB14FF09041CB6BD5
:10B2300043F00203CB63002313707047890C002096
:10B2400082074FF0904200F00103916948BF43F03C
:10B2500040030B4393617047820700F001030AD556
:10B260000121084A43F0400311704FF09041CA6B2E
:10B2700022F00302CA634FF090418A6922EA030375
:10B280008B617047890C00204FF0904301285B6967
:10B2900004D0022805D1C3F38010704703F00100E9
:10B2A000704700207047000010B5FDF770FE4FF0AA
:10B2B000904304465B695A06074A03F0010003F015
:10B2C000510348BF40F002005361FFF7A7FE20463C
:10B2D000BDE81040FDF761BE002000483E20FDF7AC
:10B2E00035B908B5FBF710F8FBF746F8FBF74BF854
:10B2F000FBF754F8BDE80840FBF759B808B5FBF771
:10B300005DF8FBF75CF8FBF75CF8BDE80840FBF77D
:10B310005AB8000010B50446FBF7E6FD4FF47A7307
:10B320005C43B0FBF3F30748B0FBF3F0B4FBF0F081
:10B33000022806D9BDE810400323B0FBF3F000F06B
:10B3400007B810BD40420F000000000000000000E0
:10B35000013800D0FCE7704738B50446FDF710FE11
:10B36000054620462CF024FC04462846FDF70CFE3A
:10B37000204638BD37B504460191FDF701FE01991D
:10B38000054620462CF0D4FB04462846FDF7FCFD7C
:10B39000204603B030BD38B50546FDF7F1FD044643
:10B3A00028462CF00DFC2046BDE83840FDF7ECBDEA
:10B3B0000A4619B1024B00211B681847704700BFAD
:10B3C0008C0C002000F4E040B0F5805F04D0A0F5C4
:10B3D000005358425841704701207047B0F5105F44
:10B3E0000DD009D8B0F5885F10D0B0F5905F0DD0C2
:10B3F00041F20103984209D06FF08500704721F0B7
:10B400004003802B02D0B1F5807F06D111F0070FE9
:10B4100014BF6FF08600002070476FF08600704701
:10B420000E4B0340B3F1607F06D1B1F5885F14BFC6
:10B430006FF0860000207047B3F1707F0BD101F4EC
:10B44000E043B3F5005F06D111F4E06F0CBF6FF07D
:10B450008600002070476FF0860070470000C07FB4
:10B460008A422DE9F04180460D4600F01981944B47
:10B47000944802EA030181420BD0934922F0FF0471
:10B480008C4206D0914C22F47F7121F00301A1423D
:10B490001ED12B4083420BD08B4B25F0FF019942EC
:10B4A00006D08A4925F47F7323F003038B420FD122
:10B4B00015F0FF030CD0864943F000738B4207D18F
:10B4C0006A4032F0FF030CBF01200020BDE8F0818C
:10B4D00005F0FE43B3F1A06F17D102F0FE43B3F1C4
:10B4E000A06F40F0DF8082EA050333F47E1340F062
:10B4F000D98015F40040E9D0C5F30540C2F30542F8
:10B5000090428CBF00200120E0E7B3F1407F40F083
:10B51000B48002F0FE43B3F1407F40F0C38082EA82
:10B52000050333F47E1640F0BD8041462846FFF700
:10B5300077FF002840F0B680664C12F47C1704EACE
:10B5400002043AD0B4F1607FC2F305477BD1D3B295
:10B5500043F0007303F17E410139022977D903F1E9
:10B560007E410439012974D95B498B4275D0013180
:10B570008B4274D001318B4273D001318B426AD03F
:10B5800001318B4269D001318B4268D003318B424B
:10B5900063D001318B4262D001318B4261D00131E5
:10B5A0008B4208BF402615F47C1FC5F305435AD1D2
:10B5B000BE4214BF0020012088E7B4F1607F2CD187
:10B5C000D3B243F0007303F17E41013902296BD9F4
:10B5D00003F17E410439012968D93F498B4269D082
:10B5E00001318B4268D001318B4267D001318B42EF
:10B5F0005ED001318B425DD001318B425CD0033192
:10B600008B4257D001318B4256D001318B4255D0FD
:10B6100001318B4208BF402799E7B4F1707FC2D156
:10B6200008F4E043B3F5005F03D10127C8F3022318
:10B630009F4008F4E043B3F5005FB4D10126C8F39E
:10B6400002239E40AFE7B4F1707FACD1F1E7102642
:10B65000A9E71426A7E74026A5E71C26A3E720268E
:10B66000A1E730269FE712F47C1F01D1B34217D027
:10B670002A047FF52BAFBB4243E7B3F1106F11D122
:10B6800025F01F6323F4702363B902F0FE43B3F186
:10B69000106F07D11148104040F01060A84288E7B1
:10B6A000012013E7002011E7102750E714274EE789
:10B6B00040274CE71C274AE7202748E7302746E782
:10B6C00000FEFFFF0002000600090006000400065D
:10B6D000FF0000020000C07F080000020000FFF62B
:10B6E00043680A461B0A10B403D05DF8044B00F00F
:10B6F00085BE4388B3B1018801F4E040B0F5805FB6
:10B7000002D0B0F5005F02D10733DB1009E047F249
:10B71000010081420AD15B080133DB1003EBC30354
:10B720003B33136000205DF8044B704744F2010086
:10B73000814202D1DB081033F3E747F20200814275
:10B7400004D1DB0803EB43035A33EAE744F2020077
:10B75000814204D1DB0803EB43034A33E1E721F0E4
:10B76000FF01B1F5E24FCFD0B1F5824F04D10733DD
:10B77000DB105B000133D4E76FF08500D3E77FB5C2
:10B7800000F0FE46B6F1106F0D4603D06FF0850055
:10B7900004B070BD20F01F6424F47024002CF5D197
:10B7A0000A9C0294099C0194089C009400F079FF83
:10B7B00010F1860FECD16B681B0AE9D1E6E70000B7
:10B7C0002DE9F843884617461C4601F03FF8054628
:10B7D00000283FD1D8F80060B6F8009009F4E043A3
:10B7E000B3F5804FF36808BF27F0010737EA03037A
:10B7F00028D17CB3224A24F4FF7323F0010393423F
:10B800000BD0204B24F0FF029A4206D01E4A24F4AB
:10B810007F7323F0030393421FD114F0FF0304D07E
:10B820001A4A43F0007393421ED0224648463169BB
:10B83000FFF716FE074668B9224648467169FFF7CA
:10B840000FFED0B96FF0840500233046C8F80030F1
:10B8500001F03CF82846BDE8F88304F0FE43B3F15C
:10B86000407F04D12304E0D56FF08605ECE7B3F107
:10B87000A06FF7D0054B9C42D6E73D46EAE700BFF4
:10B88000000200060009000600040006FF00000296
:10B8900038B5037904460D4633B9A36820462B60BA
:10B8A00001F014F838B938BDD0E9081201F0FEF8FB
:10B8B0000028F2D0F7E700232B60F4E700232DE9FE
:10B8C000F341D0E9016804460F4630461146136043
:10B8D00001F006F8054688B9304601F003F8054640
:10B8E00060B9F6B276B9B8F1000F05D1E36823F478
:10B8F000FE4323F0030363B16FF08605284602B0D0
:10B90000BDE8F0810146A06800F0F4FE0028EDD10A
:10B91000F2E74FF6F87362889A421CD8238B23F023
:10B920000103002BE8D1394601A800F04DFF054680
:10B930000028E3D10FCC3F683E460FC694E80700CD
:10B940003B7986E807000BB9019BBB603B8B23F07A
:10B9500001033B83D2E76FF08505CFE770B5046A3A
:10B9600005460E463CB90120FFF704FD286228B1C8
:10B9700020466E6270BD6FF08A00FBE76FF08C00AE
:10B98000F8E773B50E46114605460192FFF7E6FF4C
:10B99000044620B93146019A286A2CF029F920463C
:10B9A00002B070BD2DE9F041089E88461F4604880C
:10B9B00022B96FF085042046BDE8F0812046FFF7EC
:10B9C00001FD0028F5D033680BB9D3003360B2F124
:10B9D000005FEED24FF6F87331689942E9D82046FD
:10B9E000FFF7FCFC04460028E5D1CD1D0699EB08C5
:10B9F000B1EBD50F0BD393420CD1414638462CF016
:10BA0000F7F83368079A0733DB081360D3E76FF062
:10BA10008904D0E76FF08604CDE710B50446006ACC
:10BA200010B1616AFFF7C4FC206AFFF7B4FC002084
:10BA3000C4E9080010BD38B50446FFF7EEFFE3691E
:10BA40002822012B0CBF05466FF0960500212046E9
:10BA50002CF0F5F8284638BD13B5044660B101A9AD
:10BA600000F0F4FE044638B90198C369012B06D9E9
:10BA700000F02CFF6FF08304204602B010BD037964
:10BA80001BB1806800F068FF04460198FFF7D3FF00
:10BA9000002C08BF0446EFE770B5144602881D4627
:10BAA0001046049EFFF78EFC50B944F2010322F4C5
:10BAB0004050984204D002F44F42B2F5824F0ED16A
:10BAC000B4420FD8224628462CF092F80021321BAF
:10BAD00028192CF0B4F80020059B1C6070BD6FF095
